{"abi":[{"type":"function","name":"addressToString","inputs":[{"name":"addr","type":"address","internalType":"address"}],"outputs":[{"name":"","type":"string","internalType":"string"}],"stateMutability":"pure"},{"type":"function","name":"uintToString","inputs":[{"name":"value","type":"uint256","internalType":"uint256"}],"outputs":[{"name":"","type":"string","internalType":"string"}],"stateMutability":"pure"}],"bytecode":{"object":"0x60808060405234601957610338908161001e823930815050f35b5f80fdfe60806040526004361015610011575f80fd5b5f3560e01c80635e57966d1461005d5763e93956791461002f575f80fd5b602036600319011261005957610055610049600435610247565b604051918291826101b8565b0390f35b5f80fd5b6020366003190112610059576004356001600160a01b038116908190036100595761008860406101e2565b90601082526f181899199a1a9b1b9c1cb0b131b232b360811b60208301526100b060606101e2565b602a8152906020820160403682378251156101a457603090538151600110156101a457607860218301535f5b601481106100f2576040518061005585826101b8565b600c81018082116101905760208110156101a45782901a906001600160f81b0319610124600484901c600f1687610236565b5116918160011b92828404600214831517156101905783600201908160021161019057610154905f1a9187610236565b536001600160f81b03199061016c90600f1687610236565b51169160030180600311610190576101896001935f1a9186610236565b53016100dc565b634e487b7160e01b5f52601160045260245ffd5b634e487b7160e01b5f52603260045260245ffd5b602060409281835280519182918282860152018484015e5f828201840152601f01601f1916010190565b6040519190601f01601f191682016001600160401b0381118382101761020757604052565b634e487b7160e01b5f52604160045260245ffd5b6001600160401b03811161020757601f01601f191660200190565b9081518110156101a4570160200190565b80156102e65780815f925b6102cd57506102686102638361021b565b6101e2565b8281529181601f196102798361021b565b013660208601375b61028a57505090565b5f198101908111610190578091600a8106603001918260301161019057600a9260f81b6001600160f81b0319165f1a906102c49086610236565b53049081610281565b90915f198114610190576001019190600a900480610252565b506102f160406101e2565b60018152600360fc1b60208201529056fea2646970667358221220deac9340bcadc7ae52a9f0b2ecb5cc48bd0c09eeb67d03a99a12421801eb0d5a64736f6c63430008210033","linkReferences":{}},"methodIdentifiers":{"addressToString(address)":"5e57966d","uintToString(uint256)":"e9395679"},"id":42}