{"abi":[{"type":"function","name":"calculateClaimableYield","inputs":[{"name":"dao","type":"address","internalType":"address"},{"name":"investmentId","type":"uint256","internalType":"uint256"},{"name":"voter","type":"address","internalType":"address"}],"outputs":[{"name":"","type":"uint256","internalType":"uint256"}],"stateMutability":"view"},{"type":"function","name":"canActivateInvestment","inputs":[{"name":"dao","type":"address","internalType":"address"},{"name":"investmentId","type":"uint256","internalType":"uint256"}],"outputs":[{"name":"","type":"bool","internalType":"bool"}],"stateMutability":"view"},{"type":"function","name":"getAllInvestments","inputs":[{"name":"dao","type":"address","internalType":"address"}],"outputs":[{"name":"","type":"tuple[]","internalType":"struct ILocalDAO.Investment[]","components":[{"name":"id","type":"uint256","internalType":"uint256"},{"name":"name","type":"string","internalType":"string"},{"name":"status","type":"uint8","internalType":"enum ILocalDAO.Status"},{"name":"category","type":"uint8","internalType":"enum ILocalDAO.Category"},{"name":"deadline","type":"uint256","internalType":"uint256"},{"name":"upvotes","type":"uint256","internalType":"uint256"},{"name":"downvotes","type":"uint256","internalType":"uint256"},{"name":"fundNeeded","type":"uint256","internalType":"uint256"},{"name":"expectedYield","type":"uint256","internalType":"uint256"},{"name":"grade","type":"uint8","internalType":"enum ILocalDAO.Grade"},{"name":"documentCIDs","type":"string[]","internalType":"string[]"},{"name":"totalYieldGenerated","type":"uint256","internalType":"uint256"},{"name":"totalYieldDistributed","type":"uint256","internalType":"uint256"},{"name":"extensionCount","type":"uint256","internalType":"uint256"},{"name":"createdAt","type":"uint256","internalType":"uint256"},{"name":"createdBy","type":"address","internalType":"address"}]}],"stateMutability":"view"},{"type":"function","name":"getInvestmentAnalytics","inputs":[{"name":"dao","type":"address","internalType":"address"},{"name":"investmentId","type":"uint256","internalType":"uint256"}],"outputs":[{"name":"principal","type":"uint256","internalType":"uint256"},{"name":"totalStaked","type":"uint256","internalType":"uint256"},{"name":"expectedYieldAmount","type":"uint256","internalType":"uint256"},{"name":"totalYieldGenerated","type":"uint256","internalType":"uint256"},{"name":"totalYieldDistributed","type":"uint256","internalType":"uint256"},{"name":"remainingYield","type":"uint256","internalType":"uint256"},{"name":"realizedRoiBps","type":"uint256","internalType":"uint256"},{"name":"expectedRoiBps","type":"uint256","internalType":"uint256"},{"name":"stakingUtilizationBps","type":"uint256","internalType":"uint256"}],"stateMutability":"view"},{"type":"function","name":"getInvestmentsByStatus","inputs":[{"name":"dao","type":"address","internalType":"address"},{"name":"status","type":"uint8","internalType":"enum ILocalDAO.Status"}],"outputs":[{"name":"","type":"tuple[]","internalType":"struct ILocalDAO.Investment[]","components":[{"name":"id","type":"uint256","internalType":"uint256"},{"name":"name","type":"string","internalType":"string"},{"name":"status","type":"uint8","internalType":"enum ILocalDAO.Status"},{"name":"category","type":"uint8","internalType":"enum ILocalDAO.Category"},{"name":"deadline","type":"uint256","internalType":"uint256"},{"name":"upvotes","type":"uint256","internalType":"uint256"},{"name":"downvotes","type":"uint256","internalType":"uint256"},{"name":"fundNeeded","type":"uint256","internalType":"uint256"},{"name":"expectedYield","type":"uint256","internalType":"uint256"},{"name":"grade","type":"uint8","internalType":"enum ILocalDAO.Grade"},{"name":"documentCIDs","type":"string[]","internalType":"string[]"},{"name":"totalYieldGenerated","type":"uint256","internalType":"uint256"},{"name":"totalYieldDistributed","type":"uint256","internalType":"uint256"},{"name":"extensionCount","type":"uint256","internalType":"uint256"},{"name":"createdAt","type":"uint256","internalType":"uint256"},{"name":"createdBy","type":"address","internalType":"address"}]}],"stateMutability":"view"},{"type":"function","name":"getUserAnalytics","inputs":[{"name":"dao","type":"address","internalType":"address"},{"name":"user","type":"address","internalType":"address"}],"outputs":[{"name":"totalStaked","type":"uint256","internalType":"uint256"},{"name":"totalClaimedYield","type":"uint256","internalType":"uint256"},{"name":"totalClaimableYield","type":"uint256","internalType":"uint256"},{"name":"realizedRoiBps","type":"uint256","internalType":"uint256"}],"stateMutability":"view"}],"bytecode":{"object":"0x6080806040523460155761112b908161001a8239f35b5f80fdfe60806040526004361015610011575f80fd5b5f3560e01c80633bd8ea8614610890578063718671fb146107f557806379218be5146105b5578063892a8e55146104a75780639b6f8073146102af5763dcf1d9261461005b575f80fd5b34610266576040366003190112610266576100746108d5565b6040516322ae634f60e01b8152602480356004830181905291926001600160a01b031691905f90849081855afa92831561027e575f93610289575b505f90602460405180948193637967c62360e01b835260048301525afa90811561027e575f916101ba575b5060e08201519060a08301519060646100f861010086015185610fe1565b04936060610180610160830151920151920151841592835f146101aa575f925b841561019a575f945b1561015e57610120975f965b604051988952602089015260408801526060870152608086015260a085015260c084015260e0830152610100820152f35b612710860297868904612710148715171561018657610180886101209a610ff4565b9661012d565b634e487b7160e01b5f52601160045260245ffd5b6101a48789611097565b94610121565b6101b48684611097565b92610118565b90503d805f833e6101cb8183610acd565b810190602081830312610266578051906001600160401b03821161026657019060c082820312610266576040519160c083016001600160401b0381118482101761026a5760405280518352602081015160208401526040810151604084015260608101516060840152608081015160018060401b0381116102665760a092610254918301610af0565b6080840152015160a08201525f6100da565b5f80fd5b634e487b7160e01b5f52604160045260245ffd5b6040513d5f823e3d90fd5b5f9193506102a8903d8084833e6102a08183610acd565b810190610b70565b92906100af565b34610266576040366003190112610266576102c86108d5565b6024359060048210156102665760405163091ac39760e21b81526001600160a01b039190911691602082600481865afa91821561027e575f92610473575b505f60015b838111156103e3575061031d90610f00565b925f9060015b8481111561033d5760405180610339888261092d565b0390f35b6040516322ae634f60e01b8152600481018290525f81602481865afa90811561027e575f916103c9575b508460408201516103778161090f565b6103808261090f565b6103898161090f565b1461039e575b5061039990610ee5565b610323565b836103c2916103b161039994968a610fb9565b526103bc8189610fb9565b50610ee5565b929061038f565b6103dd91503d805f833e6102a08183610acd565b87610367565b6040516322ae634f60e01b8152600481018290525f81602481895afa90811561027e5784916040915f91610459575b50015161041e8161090f565b6104278261090f565b6104308161090f565b14610444575b61043f90610ee5565b61030b565b9061045161043f91610ee5565b919050610436565b61046d91503d805f833e6102a08183610acd565b88610412565b9091506020813d60201161049f575b8161048f60209383610acd565b8101031261026657519083610306565b3d9150610482565b34610266576020366003190112610266576001600160a01b036104c86108d5565b1660405163091ac39760e21b8152602081600481855afa90811561027e575f91610583575b506104f781610f00565b9160015b828111156105115760405180610339868261092d565b6040516322ae634f60e01b815260048101829052905f82602481865afa91821561027e575f92610567575b505f1981019181831161018657826103bc9161055b6105629589610fb9565b5286610fb9565b6104fb565b61057c9192503d805f833e6102a08183610acd565b908561053c565b90506020813d6020116105ad575b8161059e60209383610acd565b810103126102665751826104ed565b3d9150610591565b34610266576040366003190112610266576105ce6108d5565b602435906001600160a01b03821682036102665760405163091ac39760e21b81526001600160a01b03909116915f918291829190602082600481895afa91821561027e575f926107c1575b5060015b8281111561065957608086868682610649575f915b604051938452602084015260408301526060820152f35b6106538383611097565b91610632565b60405163bc3f931f60e01b8152949560e0868061067a868660048401610d9f565b03818b5afa95861561027e575f96610791575b5060408601908151908115801561077f575b610771576106b260a0926106be92610ef3565b9860c089015190610ef3565b960151156106d6575b506106d190610ee5565b61061d565b6040516322ae634f60e01b815260048101839052905f826024818c5afa91821561027e575f92610755575b50600160408301516107128161090f565b61071b8161090f565b14610727575b506106c7565b9461074761074d926106d19497519061016060a082015191015191611012565b90610ef3565b939088610721565b61076a9192503d805f833e6102a08183610acd565b9089610701565b97965050506106d190610ee5565b50600160ff60608a015116141561069f565b6107b391965060e03d81116107ba575b6107ab8183610acd565b810190610d19565b948861068d565b503d6107a1565b9091506020813d6020116107ed575b816107dd60209383610acd565b8101031261026657519086610619565b3d91506107d0565b346102665760403660031901126102665760245f6108116108d5565b6040516322ae634f60e01b81528335600482015292839182906001600160a01b03165afa801561027e576020915f91610876575b5060a081015190608060e0820151910151911015908161086b575b506040519015158152f35b905042111582610860565b61088a91503d805f833e6102a08183610acd565b82610845565b34610266576060366003190112610266576108a96108d5565b604435906001600160a01b0382168203610266576020916108cd9160243590610db8565b604051908152f35b600435906001600160a01b038216820361026657565b805180835260209291819084018484015e5f828201840152601f01601f1916010190565b6004111561091957565b634e487b7160e01b5f52602160045260245ffd5b602081016020825282518091526040820191602060408360051b8301019401925f915b83831061095f57505050505090565b9091929394603f198282030183528551908151815261098f602083015161020060208401526102008301906108eb565b91604081015161099e8161090f565b6040830152606081015160078110156109195760608301526080810151608083015260a081015160a083015260c081015160c083015260e081015160e08301526101008101516101008301526101208101516109f98161090f565b61012083015261014081015192828103610140840152835180825260208201906020808260051b8501019601925f5b828110610a86575050506101608084015190850152505061018080820151908301526101a080820151908301526101c080820151908301526101e0908101516001600160a01b03169101529460209081019493600101920190610950565b9091929396602080610aa4600193601f198782030189528b516108eb565b9901950193929101610a28565b61020081019081106001600160401b0382111761026a57604052565b601f909101601f19168101906001600160401b0382119082101761026a57604052565b81601f82011215610266578051906001600160401b03821161026a5760405192610b24601f8401601f191660200185610acd565b8284526020838301011161026657815f9260208093018386015e8301015290565b6001600160401b03811161026a5760051b60200190565b51906001600160a01b038216820361026657565b602081830312610266578051906001600160401b0382116102665701610200818303126102665760405191610ba483610ab1565b8151835260208201516001600160401b0381116102665781610bc7918401610af0565b602084015260408201516004811015610266576040840152606082015160078110156102665760608401526080820151608084015260a082015160a084015260c082015160c084015260e082015160e08401526101008201516101008401526101208201516004811015610266576101208401526101408201516001600160401b0381116102665782019080601f83011215610266578151610c6881610b45565b92610c766040519485610acd565b81845260208085019260051b820101918383116102665760208201905b838210610cec575050505050610ce3916101e0916101408501526101608101516101608501526101808101516101808501526101a08101516101a08501526101c08101516101c085015201610b5c565b6101e082015290565b81516001600160401b03811161026657602091610d0e87848094880101610af0565b815201910190610c93565b908160e0910312610266576040519060e082016001600160401b0381118382101761026a57604052610d4a81610b5c565b82526020810151602083015260408101516040830152606081015160ff811681036102665760608301526080810151608083015260a08101519081151582036102665760c09160a0840152015160c082015290565b9081526001600160a01b03909116602082015260400190565b6040516322ae634f60e01b815260048101839052926001600160a01b039190911691905f84602481865afa93841561027e575f94610ec9575b5060016040850151610e028161090f565b610e0b8161090f565b03610ec15760405163bc3f931f60e01b81529260e092849283918291610e349160048401610d9f565b03915afa90811561027e575f91610ea2575b506040810151908115908115610e8f575b8115610e81575b50610e7b578161016060a0610e7894015191015191611012565b90565b50505f90565b60a09150015115155f610e5e565b606081015160ff16600114159150610e57565b610ebb915060e03d60e0116107ba576107ab8183610acd565b5f610e46565b505050505f90565b610ede9194503d805f833e6102a08183610acd565b925f610df1565b5f1981146101865760010190565b9190820180921161018657565b90610f0a82610b45565b610f176040519182610acd565b8281528092610f28601f1991610b45565b01905f5b828110610f3857505050565b602090604051610f4781610ab1565b5f81526060838201525f60408201525f60608201525f60808201525f60a08201525f60c08201525f60e08201525f6101008201525f61012082015260606101408201525f6101608201525f6101808201525f6101a08201525f6101c08201525f6101e082015282828501015201610f2c565b8051821015610fcd5760209160051b010190565b634e487b7160e01b5f52603260045260245ffd5b8181029291811591840414171561018657565b8115610ffe570490565b634e487b7160e01b5f52601260045260245ffd5b81156110665781811161103157610e789261102c91610fe1565b610ff4565b60405162461bcd60e51b815260206004820152600d60248201526c496e76616c6964207374616b6560981b6044820152606490fd5b60405162461bcd60e51b81526020600482015260096024820152684e6f207374616b657360b81b6044820152606490fd5b9080156110bc57612710820291808304612710149015171561018657610e7891610ff4565b60405162461bcd60e51b8152602060048201526011602482015270125b9d985b1a59081c1c9a5b98da5c185b607a1b6044820152606490fdfea2646970667358221220281f5bb033891ed69fa9134d0715482f44e54094f1f7047ab7e20d5c46529c4664736f6c634300081e0033","linkReferences":{}},"methodIdentifiers":{"calculateClaimableYield(address,uint256,address)":"3bd8ea86","canActivateInvestment(address,uint256)":"718671fb","getAllInvestments(address)":"892a8e55","getInvestmentAnalytics(address,uint256)":"dcf1d926","getInvestmentsByStatus(address,uint8)":"9b6f8073","getUserAnalytics(address,address)":"79218be5"},"id":38}