{"abi":[{"type":"constructor","inputs":[],"stateMutability":"nonpayable"},{"type":"function","name":"GRACE_PERIOD_FOR_UNCLAIMED_YIELD","inputs":[],"outputs":[{"name":"","type":"uint256","internalType":"uint256"}],"stateMutability":"view"},{"type":"function","name":"MAX_EXTENSIONS","inputs":[],"outputs":[{"name":"","type":"uint256","internalType":"uint256"}],"stateMutability":"view"},{"type":"function","name":"PHASE1_PERCENT","inputs":[],"outputs":[{"name":"","type":"uint256","internalType":"uint256"}],"stateMutability":"view"},{"type":"function","name":"PHASE2_PERCENT","inputs":[],"outputs":[{"name":"","type":"uint256","internalType":"uint256"}],"stateMutability":"view"},{"type":"function","name":"PHASE3_PERCENT","inputs":[],"outputs":[{"name":"","type":"uint256","internalType":"uint256"}],"stateMutability":"view"},{"type":"function","name":"REQUIRED_ADMIN_COUNT","inputs":[],"outputs":[{"name":"","type":"uint256","internalType":"uint256"}],"stateMutability":"view"},{"type":"function","name":"REQUIRED_YIELD_APPROVALS","inputs":[],"outputs":[{"name":"","type":"uint256","internalType":"uint256"}],"stateMutability":"view"},{"type":"function","name":"activateInvestment","inputs":[{"name":"investmentId","type":"uint256","internalType":"uint256"}],"outputs":[],"stateMutability":"nonpayable"},{"type":"function","name":"activeInvestmentCount","inputs":[],"outputs":[{"name":"","type":"uint256","internalType":"uint256"}],"stateMutability":"view"},{"type":"function","name":"addAdmin","inputs":[{"name":"admin","type":"address","internalType":"address"}],"outputs":[],"stateMutability":"nonpayable"},{"type":"function","name":"addFinanceManager","inputs":[{"name":"manager","type":"address","internalType":"address"}],"outputs":[],"stateMutability":"nonpayable"},{"type":"function","name":"addMember","inputs":[{"name":"wallet","type":"address","internalType":"address"},{"name":"kycProofHash","type":"bytes32","internalType":"bytes32"}],"outputs":[],"stateMutability":"nonpayable"},{"type":"function","name":"admins","inputs":[{"name":"","type":"uint256","internalType":"uint256"}],"outputs":[{"name":"","type":"address","internalType":"address"}],"stateMutability":"view"},{"type":"function","name":"approveYieldDeposit","inputs":[{"name":"proposalId","type":"uint256","internalType":"uint256"}],"outputs":[],"stateMutability":"nonpayable"},{"type":"function","name":"canActivateInvestment","inputs":[{"name":"investmentId","type":"uint256","internalType":"uint256"}],"outputs":[{"name":"","type":"bool","internalType":"bool"}],"stateMutability":"view"},{"type":"function","name":"claimYield","inputs":[{"name":"investmentId","type":"uint256","internalType":"uint256"}],"outputs":[],"stateMutability":"nonpayable"},{"type":"function","name":"closeInvestment","inputs":[{"name":"investmentId","type":"uint256","internalType":"uint256"}],"outputs":[],"stateMutability":"nonpayable"},{"type":"function","name":"coordinates","inputs":[],"outputs":[{"name":"","type":"string","internalType":"string"}],"stateMutability":"view"},{"type":"function","name":"createInvestment","inputs":[{"name":"_name","type":"string","internalType":"string"},{"name":"category","type":"uint8","internalType":"enum ILocalDAO.Category"},{"name":"fundNeeded","type":"uint256","internalType":"uint256"},{"name":"expectedYield","type":"uint256","internalType":"uint256"},{"name":"grade","type":"uint8","internalType":"enum ILocalDAO.Grade"},{"name":"deadline","type":"uint256","internalType":"uint256"},{"name":"documentCIDs","type":"string[]","internalType":"string[]"}],"outputs":[{"name":"investmentId","type":"uint256","internalType":"uint256"}],"stateMutability":"nonpayable"},{"type":"function","name":"creator","inputs":[],"outputs":[{"name":"","type":"address","internalType":"address"}],"stateMutability":"view"},{"type":"function","name":"depositYield","inputs":[{"name":"investmentId","type":"uint256","internalType":"uint256"},{"name":"yieldAmount","type":"uint256","internalType":"uint256"},{"name":"expenseReportCID","type":"string","internalType":"string"}],"outputs":[],"stateMutability":"nonpayable"},{"type":"function","name":"description","inputs":[],"outputs":[{"name":"","type":"string","internalType":"string"}],"stateMutability":"view"},{"type":"function","name":"escrowTotal","inputs":[{"name":"","type":"uint256","internalType":"uint256"}],"outputs":[{"name":"","type":"uint256","internalType":"uint256"}],"stateMutability":"view"},{"type":"function","name":"escrowedAmount","inputs":[{"name":"","type":"uint256","internalType":"uint256"}],"outputs":[{"name":"","type":"uint256","internalType":"uint256"}],"stateMutability":"view"},{"type":"function","name":"executeYieldDeposit","inputs":[{"name":"proposalId","type":"uint256","internalType":"uint256"}],"outputs":[],"stateMutability":"nonpayable"},{"type":"function","name":"exitDAO","inputs":[],"outputs":[],"stateMutability":"nonpayable"},{"type":"function","name":"extendDeadline","inputs":[{"name":"investmentId","type":"uint256","internalType":"uint256"},{"name":"additionalDays","type":"uint256","internalType":"uint256"}],"outputs":[],"stateMutability":"nonpayable"},{"type":"function","name":"getAllMembers","inputs":[],"outputs":[{"name":"","type":"address[]","internalType":"address[]"}],"stateMutability":"view"},{"type":"function","name":"getInvestment","inputs":[{"name":"investmentId","type":"uint256","internalType":"uint256"}],"outputs":[{"name":"","type":"tuple","internalType":"struct ILocalDAO.Investment","components":[{"name":"id","type":"uint256","internalType":"uint256"},{"name":"name","type":"string","internalType":"string"},{"name":"status","type":"uint8","internalType":"enum ILocalDAO.Status"},{"name":"category","type":"uint8","internalType":"enum ILocalDAO.Category"},{"name":"deadline","type":"uint256","internalType":"uint256"},{"name":"upvotes","type":"uint256","internalType":"uint256"},{"name":"downvotes","type":"uint256","internalType":"uint256"},{"name":"fundNeeded","type":"uint256","internalType":"uint256"},{"name":"expectedYield","type":"uint256","internalType":"uint256"},{"name":"grade","type":"uint8","internalType":"enum ILocalDAO.Grade"},{"name":"documentCIDs","type":"string[]","internalType":"string[]"},{"name":"totalYieldGenerated","type":"uint256","internalType":"uint256"},{"name":"totalYieldDistributed","type":"uint256","internalType":"uint256"},{"name":"extensionCount","type":"uint256","internalType":"uint256"},{"name":"createdAt","type":"uint256","internalType":"uint256"},{"name":"createdBy","type":"address","internalType":"address"}]}],"stateMutability":"view"},{"type":"function","name":"getInvestmentTimeline","inputs":[{"name":"investmentId","type":"uint256","internalType":"uint256"}],"outputs":[{"name":"","type":"tuple[]","internalType":"struct ILocalDAO.Activity[]","components":[{"name":"eventType","type":"string","internalType":"string"},{"name":"timestamp","type":"uint256","internalType":"uint256"},{"name":"details","type":"string","internalType":"string"},{"name":"documentCID","type":"string","internalType":"string"},{"name":"actor","type":"address","internalType":"address"}]}],"stateMutability":"view"},{"type":"function","name":"getVote","inputs":[{"name":"investmentId","type":"uint256","internalType":"uint256"},{"name":"voter","type":"address","internalType":"address"}],"outputs":[{"name":"","type":"tuple","internalType":"struct ILocalDAO.Vote","components":[{"name":"voter","type":"address","internalType":"address"},{"name":"investmentId","type":"uint256","internalType":"uint256"},{"name":"numberOfVotes","type":"uint256","internalType":"uint256"},{"name":"voteValue","type":"uint8","internalType":"uint8"},{"name":"timestamp","type":"uint256","internalType":"uint256"},{"name":"hasClaimedYield","type":"bool","internalType":"bool"},{"name":"yieldClaimed","type":"uint256","internalType":"uint256"}]}],"stateMutability":"view"},{"type":"function","name":"getVoteCounts","inputs":[{"name":"investmentId","type":"uint256","internalType":"uint256"}],"outputs":[{"name":"upvotes","type":"uint256","internalType":"uint256"},{"name":"downvotes","type":"uint256","internalType":"uint256"}],"stateMutability":"view"},{"type":"function","name":"getWithdrawableAmount","inputs":[{"name":"investmentId","type":"uint256","internalType":"uint256"},{"name":"voter","type":"address","internalType":"address"}],"outputs":[{"name":"","type":"uint256","internalType":"uint256"}],"stateMutability":"view"},{"type":"function","name":"getYieldDistribution","inputs":[{"name":"investmentId","type":"uint256","internalType":"uint256"}],"outputs":[{"name":"","type":"tuple","internalType":"struct ILocalDAO.YieldDistribution","components":[{"name":"investmentId","type":"uint256","internalType":"uint256"},{"name":"totalAmount","type":"uint256","internalType":"uint256"},{"name":"distributedAmount","type":"uint256","internalType":"uint256"},{"name":"remainingAmount","type":"uint256","internalType":"uint256"},{"name":"expenseReportCID","type":"string","internalType":"string"},{"name":"timestamp","type":"uint256","internalType":"uint256"}]}],"stateMutability":"view"},{"type":"function","name":"initialize","inputs":[{"name":"_creator","type":"address","internalType":"address"},{"name":"_name","type":"string","internalType":"string"},{"name":"_description","type":"string","internalType":"string"},{"name":"_location","type":"string","internalType":"string"},{"name":"_coordinates","type":"string","internalType":"string"},{"name":"_postalCode","type":"string","internalType":"string"},{"name":"_maxMembership","type":"uint256","internalType":"uint256"},{"name":"_usdcAddress","type":"address","internalType":"address"}],"outputs":[],"stateMutability":"nonpayable"},{"type":"function","name":"investmentCount","inputs":[],"outputs":[{"name":"","type":"uint256","internalType":"uint256"}],"stateMutability":"view"},{"type":"function","name":"investmentTimeline","inputs":[{"name":"","type":"uint256","internalType":"uint256"},{"name":"","type":"uint256","internalType":"uint256"}],"outputs":[{"name":"eventType","type":"string","internalType":"string"},{"name":"timestamp","type":"uint256","internalType":"uint256"},{"name":"details","type":"string","internalType":"string"},{"name":"documentCID","type":"string","internalType":"string"},{"name":"actor","type":"address","internalType":"address"}],"stateMutability":"view"},{"type":"function","name":"investments","inputs":[{"name":"","type":"uint256","internalType":"uint256"}],"outputs":[{"name":"id","type":"uint256","internalType":"uint256"},{"name":"name","type":"string","internalType":"string"},{"name":"status","type":"uint8","internalType":"enum ILocalDAO.Status"},{"name":"category","type":"uint8","internalType":"enum ILocalDAO.Category"},{"name":"deadline","type":"uint256","internalType":"uint256"},{"name":"upvotes","type":"uint256","internalType":"uint256"},{"name":"downvotes","type":"uint256","internalType":"uint256"},{"name":"fundNeeded","type":"uint256","internalType":"uint256"},{"name":"expectedYield","type":"uint256","internalType":"uint256"},{"name":"grade","type":"uint8","internalType":"enum ILocalDAO.Grade"},{"name":"totalYieldGenerated","type":"uint256","internalType":"uint256"},{"name":"totalYieldDistributed","type":"uint256","internalType":"uint256"},{"name":"extensionCount","type":"uint256","internalType":"uint256"},{"name":"createdAt","type":"uint256","internalType":"uint256"},{"name":"createdBy","type":"address","internalType":"address"}],"stateMutability":"view"},{"type":"function","name":"isAdmin","inputs":[{"name":"","type":"address","internalType":"address"}],"outputs":[{"name":"","type":"bool","internalType":"bool"}],"stateMutability":"view"},{"type":"function","name":"isFinanceManager","inputs":[{"name":"","type":"address","internalType":"address"}],"outputs":[{"name":"","type":"bool","internalType":"bool"}],"stateMutability":"view"},{"type":"function","name":"isVerifiedMember","inputs":[{"name":"wallet","type":"address","internalType":"address"}],"outputs":[{"name":"","type":"bool","internalType":"bool"}],"stateMutability":"view"},{"type":"function","name":"location","inputs":[],"outputs":[{"name":"","type":"string","internalType":"string"}],"stateMutability":"view"},{"type":"function","name":"logoURI","inputs":[],"outputs":[{"name":"","type":"string","internalType":"string"}],"stateMutability":"view"},{"type":"function","name":"markInvestmentIncomplete","inputs":[{"name":"investmentId","type":"uint256","internalType":"uint256"}],"outputs":[],"stateMutability":"nonpayable"},{"type":"function","name":"maxMembership","inputs":[],"outputs":[{"name":"","type":"uint256","internalType":"uint256"}],"stateMutability":"view"},{"type":"function","name":"memberAddresses","inputs":[{"name":"","type":"uint256","internalType":"uint256"}],"outputs":[{"name":"","type":"address","internalType":"address"}],"stateMutability":"view"},{"type":"function","name":"memberCount","inputs":[],"outputs":[{"name":"","type":"uint256","internalType":"uint256"}],"stateMutability":"view"},{"type":"function","name":"members","inputs":[{"name":"","type":"address","internalType":"address"}],"outputs":[{"name":"wallet","type":"address","internalType":"address"},{"name":"kycVerified","type":"bool","internalType":"bool"},{"name":"kycProofHash","type":"bytes32","internalType":"bytes32"},{"name":"joinedAt","type":"uint256","internalType":"uint256"},{"name":"isActive","type":"bool","internalType":"bool"}],"stateMutability":"view"},{"type":"function","name":"name","inputs":[],"outputs":[{"name":"","type":"string","internalType":"string"}],"stateMutability":"view"},{"type":"function","name":"pause","inputs":[],"outputs":[],"stateMutability":"nonpayable"},{"type":"function","name":"paused","inputs":[],"outputs":[{"name":"","type":"bool","internalType":"bool"}],"stateMutability":"view"},{"type":"function","name":"postalCode","inputs":[],"outputs":[{"name":"","type":"string","internalType":"string"}],"stateMutability":"view"},{"type":"function","name":"proposeYieldDeposit","inputs":[{"name":"investmentId","type":"uint256","internalType":"uint256"},{"name":"yieldAmount","type":"uint256","internalType":"uint256"},{"name":"expenseReportCID","type":"string","internalType":"string"}],"outputs":[{"name":"","type":"uint256","internalType":"uint256"}],"stateMutability":"nonpayable"},{"type":"function","name":"releaseNextPhase","inputs":[{"name":"investmentId","type":"uint256","internalType":"uint256"},{"name":"recipient","type":"address","internalType":"address"}],"outputs":[],"stateMutability":"nonpayable"},{"type":"function","name":"releasePhaseCompleted","inputs":[{"name":"","type":"uint256","internalType":"uint256"}],"outputs":[{"name":"","type":"uint8","internalType":"uint8"}],"stateMutability":"view"},{"type":"function","name":"removeAdmin","inputs":[{"name":"admin","type":"address","internalType":"address"}],"outputs":[],"stateMutability":"nonpayable"},{"type":"function","name":"removeFinanceManager","inputs":[{"name":"manager","type":"address","internalType":"address"}],"outputs":[],"stateMutability":"nonpayable"},{"type":"function","name":"removeMember","inputs":[{"name":"wallet","type":"address","internalType":"address"}],"outputs":[],"stateMutability":"nonpayable"},{"type":"function","name":"sweepUnclaimedYield","inputs":[{"name":"investmentId","type":"uint256","internalType":"uint256"},{"name":"recipient","type":"address","internalType":"address"}],"outputs":[],"stateMutability":"nonpayable"},{"type":"function","name":"totalValueLocked","inputs":[],"outputs":[{"name":"","type":"uint256","internalType":"uint256"}],"stateMutability":"view"},{"type":"function","name":"unpause","inputs":[],"outputs":[],"stateMutability":"nonpayable"},{"type":"function","name":"updateDAOInfo","inputs":[{"name":"newDescription","type":"string","internalType":"string"},{"name":"newLogoURI","type":"string","internalType":"string"}],"outputs":[],"stateMutability":"nonpayable"},{"type":"function","name":"usdcAddress","inputs":[],"outputs":[{"name":"","type":"address","internalType":"address"}],"stateMutability":"view"},{"type":"function","name":"verifyMemberKYC","inputs":[{"name":"wallet","type":"address","internalType":"address"}],"outputs":[],"stateMutability":"nonpayable"},{"type":"function","name":"vote","inputs":[{"name":"investmentId","type":"uint256","internalType":"uint256"},{"name":"numberOfVotes","type":"uint256","internalType":"uint256"},{"name":"voteValue","type":"uint8","internalType":"uint8"}],"outputs":[],"stateMutability":"nonpayable"},{"type":"function","name":"votes","inputs":[{"name":"","type":"uint256","internalType":"uint256"},{"name":"","type":"address","internalType":"address"}],"outputs":[{"name":"voter","type":"address","internalType":"address"},{"name":"investmentId","type":"uint256","internalType":"uint256"},{"name":"numberOfVotes","type":"uint256","internalType":"uint256"},{"name":"voteValue","type":"uint8","internalType":"uint8"},{"name":"timestamp","type":"uint256","internalType":"uint256"},{"name":"hasClaimedYield","type":"bool","internalType":"bool"},{"name":"yieldClaimed","type":"uint256","internalType":"uint256"}],"stateMutability":"view"},{"type":"function","name":"withdrawStake","inputs":[{"name":"investmentId","type":"uint256","internalType":"uint256"}],"outputs":[],"stateMutability":"nonpayable"},{"type":"function","name":"yieldDistributions","inputs":[{"name":"","type":"uint256","internalType":"uint256"}],"outputs":[{"name":"investmentId","type":"uint256","internalType":"uint256"},{"name":"totalAmount","type":"uint256","internalType":"uint256"},{"name":"distributedAmount","type":"uint256","internalType":"uint256"},{"name":"remainingAmount","type":"uint256","internalType":"uint256"},{"name":"expenseReportCID","type":"string","internalType":"string"},{"name":"timestamp","type":"uint256","internalType":"uint256"}],"stateMutability":"view"},{"type":"function","name":"yieldProposalApprovals","inputs":[{"name":"","type":"uint256","internalType":"uint256"},{"name":"","type":"address","internalType":"address"}],"outputs":[{"name":"","type":"bool","internalType":"bool"}],"stateMutability":"view"},{"type":"function","name":"yieldProposalCount","inputs":[],"outputs":[{"name":"","type":"uint256","internalType":"uint256"}],"stateMutability":"view"},{"type":"function","name":"yieldProposals","inputs":[{"name":"","type":"uint256","internalType":"uint256"}],"outputs":[{"name":"id","type":"uint256","internalType":"uint256"},{"name":"investmentId","type":"uint256","internalType":"uint256"},{"name":"amount","type":"uint256","internalType":"uint256"},{"name":"expenseReportCID","type":"string","internalType":"string"},{"name":"proposer","type":"address","internalType":"address"},{"name":"approvals","type":"uint256","internalType":"uint256"},{"name":"executed","type":"bool","internalType":"bool"},{"name":"createdAt","type":"uint256","internalType":"uint256"}],"stateMutability":"view"},{"type":"event","name":"ActivityLogged","inputs":[{"name":"investmentId","type":"uint256","indexed":true,"internalType":"uint256"},{"name":"eventType","type":"string","indexed":false,"internalType":"string"},{"name":"details","type":"string","indexed":false,"internalType":"string"},{"name":"timestamp","type":"uint256","indexed":false,"internalType":"uint256"}],"anonymous":false},{"type":"event","name":"AdminAdded","inputs":[{"name":"admin","type":"address","indexed":true,"internalType":"address"}],"anonymous":false},{"type":"event","name":"AdminRemoved","inputs":[{"name":"admin","type":"address","indexed":true,"internalType":"address"}],"anonymous":false},{"type":"event","name":"DAOPaused","inputs":[{"name":"timestamp","type":"uint256","indexed":false,"internalType":"uint256"}],"anonymous":false},{"type":"event","name":"DAOUnpaused","inputs":[{"name":"timestamp","type":"uint256","indexed":false,"internalType":"uint256"}],"anonymous":false},{"type":"event","name":"DeadlineExtended","inputs":[{"name":"investmentId","type":"uint256","indexed":true,"internalType":"uint256"},{"name":"newDeadline","type":"uint256","indexed":false,"internalType":"uint256"},{"name":"extensionCount","type":"uint256","indexed":false,"internalType":"uint256"}],"anonymous":false},{"type":"event","name":"FinanceManagerAdded","inputs":[{"name":"manager","type":"address","indexed":true,"internalType":"address"}],"anonymous":false},{"type":"event","name":"FinanceManagerRemoved","inputs":[{"name":"manager","type":"address","indexed":true,"internalType":"address"}],"anonymous":false},{"type":"event","name":"FundsLocked","inputs":[{"name":"investmentId","type":"uint256","indexed":true,"internalType":"uint256"},{"name":"amount","type":"uint256","indexed":false,"internalType":"uint256"}],"anonymous":false},{"type":"event","name":"FundsReleased","inputs":[{"name":"investmentId","type":"uint256","indexed":true,"internalType":"uint256"},{"name":"phase","type":"uint8","indexed":false,"internalType":"uint8"},{"name":"amount","type":"uint256","indexed":false,"internalType":"uint256"},{"name":"recipient","type":"address","indexed":true,"internalType":"address"}],"anonymous":false},{"type":"event","name":"Initialized","inputs":[{"name":"version","type":"uint64","indexed":false,"internalType":"uint64"}],"anonymous":false},{"type":"event","name":"InvestmentActivated","inputs":[{"name":"investmentId","type":"uint256","indexed":true,"internalType":"uint256"},{"name":"timestamp","type":"uint256","indexed":false,"internalType":"uint256"}],"anonymous":false},{"type":"event","name":"InvestmentClosed","inputs":[{"name":"investmentId","type":"uint256","indexed":true,"internalType":"uint256"},{"name":"timestamp","type":"uint256","indexed":false,"internalType":"uint256"}],"anonymous":false},{"type":"event","name":"InvestmentCreated","inputs":[{"name":"investmentId","type":"uint256","indexed":true,"internalType":"uint256"},{"name":"name","type":"string","indexed":false,"internalType":"string"},{"name":"fundNeeded","type":"uint256","indexed":false,"internalType":"uint256"},{"name":"grade","type":"uint8","indexed":false,"internalType":"enum ILocalDAO.Grade"},{"name":"deadline","type":"uint256","indexed":false,"internalType":"uint256"}],"anonymous":false},{"type":"event","name":"InvestmentIncomplete","inputs":[{"name":"investmentId","type":"uint256","indexed":true,"internalType":"uint256"},{"name":"timestamp","type":"uint256","indexed":false,"internalType":"uint256"}],"anonymous":false},{"type":"event","name":"MemberAdded","inputs":[{"name":"member","type":"address","indexed":true,"internalType":"address"},{"name":"timestamp","type":"uint256","indexed":false,"internalType":"uint256"}],"anonymous":false},{"type":"event","name":"MemberExited","inputs":[{"name":"member","type":"address","indexed":true,"internalType":"address"},{"name":"timestamp","type":"uint256","indexed":false,"internalType":"uint256"}],"anonymous":false},{"type":"event","name":"MemberKYCVerified","inputs":[{"name":"member","type":"address","indexed":true,"internalType":"address"},{"name":"timestamp","type":"uint256","indexed":false,"internalType":"uint256"}],"anonymous":false},{"type":"event","name":"MemberRemoved","inputs":[{"name":"member","type":"address","indexed":true,"internalType":"address"},{"name":"timestamp","type":"uint256","indexed":false,"internalType":"uint256"}],"anonymous":false},{"type":"event","name":"Paused","inputs":[{"name":"account","type":"address","indexed":false,"internalType":"address"}],"anonymous":false},{"type":"event","name":"StakeWithdrawn","inputs":[{"name":"investmentId","type":"uint256","indexed":true,"internalType":"uint256"},{"name":"voter","type":"address","indexed":true,"internalType":"address"},{"name":"amount","type":"uint256","indexed":false,"internalType":"uint256"}],"anonymous":false},{"type":"event","name":"UnclaimedYieldRecovered","inputs":[{"name":"investmentId","type":"uint256","indexed":true,"internalType":"uint256"},{"name":"recipient","type":"address","indexed":true,"internalType":"address"},{"name":"amount","type":"uint256","indexed":false,"internalType":"uint256"},{"name":"timestamp","type":"uint256","indexed":false,"internalType":"uint256"}],"anonymous":false},{"type":"event","name":"Unpaused","inputs":[{"name":"account","type":"address","indexed":false,"internalType":"address"}],"anonymous":false},{"type":"event","name":"VoteCast","inputs":[{"name":"investmentId","type":"uint256","indexed":true,"internalType":"uint256"},{"name":"voter","type":"address","indexed":true,"internalType":"address"},{"name":"numberOfVotes","type":"uint256","indexed":false,"internalType":"uint256"},{"name":"voteValue","type":"uint8","indexed":false,"internalType":"uint8"},{"name":"timestamp","type":"uint256","indexed":false,"internalType":"uint256"}],"anonymous":false},{"type":"event","name":"YieldClaimed","inputs":[{"name":"investmentId","type":"uint256","indexed":true,"internalType":"uint256"},{"name":"voter","type":"address","indexed":true,"internalType":"address"},{"name":"amount","type":"uint256","indexed":false,"internalType":"uint256"},{"name":"timestamp","type":"uint256","indexed":false,"internalType":"uint256"}],"anonymous":false},{"type":"event","name":"YieldDepositApproved","inputs":[{"name":"proposalId","type":"uint256","indexed":true,"internalType":"uint256"},{"name":"admin","type":"address","indexed":true,"internalType":"address"},{"name":"approvals","type":"uint256","indexed":false,"internalType":"uint256"}],"anonymous":false},{"type":"event","name":"YieldDepositExecuted","inputs":[{"name":"proposalId","type":"uint256","indexed":true,"internalType":"uint256"},{"name":"investmentId","type":"uint256","indexed":true,"internalType":"uint256"},{"name":"amount","type":"uint256","indexed":false,"internalType":"uint256"},{"name":"expenseReportCID","type":"string","indexed":false,"internalType":"string"},{"name":"timestamp","type":"uint256","indexed":false,"internalType":"uint256"}],"anonymous":false},{"type":"event","name":"YieldDepositProposed","inputs":[{"name":"proposalId","type":"uint256","indexed":true,"internalType":"uint256"},{"name":"investmentId","type":"uint256","indexed":true,"internalType":"uint256"},{"name":"amount","type":"uint256","indexed":false,"internalType":"uint256"},{"name":"proposer","type":"address","indexed":false,"internalType":"address"},{"name":"timestamp","type":"uint256","indexed":false,"internalType":"uint256"}],"anonymous":false},{"type":"event","name":"YieldDeposited","inputs":[{"name":"investmentId","type":"uint256","indexed":true,"internalType":"uint256"},{"name":"amount","type":"uint256","indexed":false,"internalType":"uint256"},{"name":"expenseReportCID","type":"string","indexed":false,"internalType":"string"},{"name":"timestamp","type":"uint256","indexed":false,"internalType":"uint256"}],"anonymous":false},{"type":"error","name":"AllPhasesReleased","inputs":[]},{"type":"error","name":"AlreadyAdmin","inputs":[]},{"type":"error","name":"AlreadyApproved","inputs":[]},{"type":"error","name":"AlreadyExecuted","inputs":[]},{"type":"error","name":"AlreadyFinanceManager","inputs":[]},{"type":"error","name":"AlreadyMember","inputs":[]},{"type":"error","name":"AlreadyVoted","inputs":[]},{"type":"error","name":"CannotChangeDownToUp","inputs":[]},{"type":"error","name":"CannotClose","inputs":[]},{"type":"error","name":"CannotExtend","inputs":[]},{"type":"error","name":"DeadlinePassed","inputs":[]},{"type":"error","name":"DownvoteNoStake","inputs":[]},{"type":"error","name":"EmptyDescription","inputs":[]},{"type":"error","name":"EmptyName","inputs":[]},{"type":"error","name":"EnforcedPause","inputs":[]},{"type":"error","name":"ExceedsStake","inputs":[]},{"type":"error","name":"ExpectedPause","inputs":[]},{"type":"error","name":"GracePeriodActive","inputs":[]},{"type":"error","name":"InsufficientAllowance","inputs":[]},{"type":"error","name":"InsufficientBalance","inputs":[]},{"type":"error","name":"InsufficientProposerAllowance","inputs":[]},{"type":"error","name":"InsufficientProposerBalance","inputs":[]},{"type":"error","name":"InvalidExtensionDays","inputs":[]},{"type":"error","name":"InvalidInitialization","inputs":[]},{"type":"error","name":"InvalidInvestment","inputs":[]},{"type":"error","name":"InvalidParams","inputs":[]},{"type":"error","name":"InvalidProposal","inputs":[]},{"type":"error","name":"InvalidVoteValue","inputs":[]},{"type":"error","name":"InvestmentNotActive","inputs":[]},{"type":"error","name":"KYCAlreadyVerified","inputs":[]},{"type":"error","name":"KYCNotVerified","inputs":[]},{"type":"error","name":"MembershipFull","inputs":[]},{"type":"error","name":"NoActiveInvestments","inputs":[]},{"type":"error","name":"NoEscrowedFunds","inputs":[]},{"type":"error","name":"NoStake","inputs":[]},{"type":"error","name":"NoStakeToWithdraw","inputs":[]},{"type":"error","name":"NoUnclaimedYield","inputs":[]},{"type":"error","name":"NoYieldAvailable","inputs":[]},{"type":"error","name":"NotAFinanceManager","inputs":[]},{"type":"error","name":"NotActiveMember","inputs":[]},{"type":"error","name":"NotAnAdmin","inputs":[]},{"type":"error","name":"NotCreator","inputs":[]},{"type":"error","name":"NotEnded","inputs":[]},{"type":"error","name":"NotEnoughAdmins","inputs":[]},{"type":"error","name":"NotEnoughApprovals","inputs":[]},{"type":"error","name":"NotIncomplete","inputs":[]},{"type":"error","name":"NotInitializing","inputs":[]},{"type":"error","name":"NotMember","inputs":[]},{"type":"error","name":"NotPending","inputs":[]},{"type":"error","name":"OnlyUpvoters","inputs":[]},{"type":"error","name":"ReentrancyGuardReentrantCall","inputs":[]},{"type":"error","name":"SafeERC20FailedOperation","inputs":[{"name":"token","type":"address","internalType":"address"}]},{"type":"error","name":"Unauthorized","inputs":[]},{"type":"error","name":"UnauthorizedYieldExec","inputs":[]},{"type":"error","name":"UpvoteRequiresStake","inputs":[]},{"type":"error","name":"YieldAlreadyClaimed","inputs":[]},{"type":"error","name":"YieldExceedsTotal","inputs":[]},{"type":"error","name":"ZeroAddress","inputs":[]},{"type":"error","name":"ZeroAmount","inputs":[]}],"bytecode":{"object":"0x6080806040523460ae57600180555f5160206159de5f395f51905f525460ff8160401c16609f576002600160401b03196001600160401b03821601604d575b60405161592b90816100b38239f35b6001600160401b0319166001600160401b039081175f5160206159de5f395f51905f525581527fc7f505b2f371ae2175ee4913f4499e1f2633a7b5936321eed1cdaeb6115181d290602090a15f80603e565b63f92ee8a960e01b5f5260045ffd5b5f80fdfe60806040526004361015610011575f80fd5b5f3560e01c8063023dc32114614a7f57806302d05d3f14614a5757806302d4545714614a2f57806306fdde031461499d57806308ae4b0c1461492a5780630b1ca49a146148665780630ce527011461483c5780630e8bd782146146b65780630f55e9f21461468c57806311aee3801461466f57806314bfd6d01461462d5780631785f53c146144e857806322ae634f146141da578063246b0e5c146141bd57806324d7806c1461418057806325d5971f146140815780632a80065914613f325780632d1fdef614613c97578063359cd45e14613c565780633f4ba83a14613bbe57806340bd2e231461396f57806348dccf711461395457806349df7208146137b45780634c35833d1461379757806350af8e34146136ea578063516f279e1461365857806353dac930146135be57806353f0ab14146135a1578063544c97bf1461350357806359014773146134c65780635c975abb146134a55780636028a4ef1461326a5780636833bb77146131d35780636bb38b28146131d85780636e8c4c92146131d35780636f6a169d146131b657806370480275146130d05780637284e4161461302b5780637485997f14612e6e578063760121c914612cdc57806378587a0a146129f35780637967c623146128f75780637c0f6b351461284c5780638172dcba146128035780638456cb591461277857806387dbdfcb146126d65780638a241f4c146125835780638a7174d7146123ee57806399c92a55146123d15780639f97281414611d26578063a4b889b714611c81578063a8dfd7fe14611bb2578063ab87787914611b91578063af38c76514611b64578063bbb2eab9146116ee578063bc3f931f146115e6578063c07780f614611543578063c11baa5e14611563578063ca749c9914611548578063ca90b90514611543578063cb261a03146114e1578063cc2cbf721461126f578063cc4e6299146111f7578063d1b22b9d14610e05578063d23254b414610d70578063d6cf209614610c7f578063d9d8661014610b62578063e3ad2834146104d3578063ec18154e146104b6578063fd345c8a146103a35763ff78c38a14610326575f80fd5b3461039f57602036600319011261039f576004355f52601460205260405f2080546001820154916103956002820154916003810154600561036960048401614c24565b92015493604051968796875260208701526040860152606085015260c0608085015260c0840190614cc4565b9060a08301520390f35b5f80fd5b3461039f57602036600319011261039f576004355f52601060205260405f20805490600181016103d290614c24565b90600281015460ff81169160038101546004820154600583015460068401546007850154600886015460ff1691600a87015493600b88015495600c89015497600d8a015499600160a01b6001900390600e0154169a6040519e8f9e8f918252602082016101e090526101e0820161044891614cc4565b9d61045281614d41565b60408201526060019060081c60ff169061046b91614d4b565b60808d015260a08c015260c08b015260e08a015261010089015261048e81614d41565b6101208801526101408701526101608601526101808501526101a08401526101c08301520390f35b3461039f575f36600319011261039f576020601a54604051908152f35b3461039f5760e036600319011261039f576004356001600160401b03811161039f57610503903690600401614d73565b602435600781101561039f57604435906064359160843591600483101561039f5760a4359360c4356001600160401b03811161039f573660238201121561039f57806004013561055281614e24565b916105606040519384614c01565b8183526024602084019260051b8201019036821161039f5760248101925b828410610b335750505050335f52600b60205260ff60405f2054161580610b1e575b610b10576105ac615396565b6105b786838661578d565b15610b0157865115610af2576105ce601154614e60565b958660115562015180810290808204620151801490151715610ade576105f49042614f1d565b916040519261060284614baf565b87845261061f60208501958a87525f604087015260608601614e54565b60808401525f60a08401525f60c08401528460e084015261010083015261064585614d41565b846101208301526101408201525f6101608201525f6101808201525f6101a0820152426101c0820152336101e0820152845f52601060205260405f2091815183555180519060018060401b0382116109c7576106b1826106a86001870154614b5c565b60018701614f78565b602090601f8311600114610a71576106d392915f9183610a66575b5050614fb0565b60018301555b6002820160408201516106eb81614d41565b6106f481614d41565b60ff8019835416911617815560608201516007811015610a525761ff0082549160081b169061ff0019161790556080810151600383015560a0810151600483015560c0810151600583015560e0810151600683015561010081015160078301556008820161012082015161076781614d41565b61077081614d41565b60ff8019835416911617905560098201610140820151805190600160401b82116109c75782548284558083106109db575b50602001915f5260205f20915f905b8282106108f45760208989817fde296089731ff8a2c697646172d986c015cf0fc46770a6577661fc20a8f232d46108d48f8d8d600e8e610160810151600a840155610180810151600b8401556101a0810151600c8401556101c0810151600d8401556101e060018060a01b039101511691019060018060a01b031660018060a01b03198254161790556040956108b2875161084b8982614c01565b60128152711a5b9d995cdd1b595b9d17d8dc99585d195960721b8b82015288516108758a82614c01565b601b81527a125b9d995cdd1b595b9d081c1c9bdc1bdcd85b0818dc99585d1959602a1b8c8201528951916108a98d84614c01565b5f835289615410565b855f52601089526003875f200154908751948594608086526080860190614cc4565b928a8501526108e281614d41565b8784015260608301520390a251908152f35b80518051906001600160401b0382116109c75761091b826109158854614b5c565b88614f78565b602090601f831160011461095e5792610944836001959460209487965f92610953575050614fb0565b87555b019401910190926107b0565b015190505f806106cc565b90601f19831691875f52815f20925f5b8181106109af5750936020936001969387969383889510610997575b505050811b018755610947565b01515f1960f88460031b161c191690558f808061098a565b9293602060018192878601518155019501930161096e565b634e487b7160e01b5f52604160045260245ffd5b835f528260205f2091820191015b8181106109f657506107a1565b80610a0360019254614b5c565b80610a10575b50016109e9565b601f81118314610a2557505f81555b8c610a09565b610a4190825f5283601f60205f20920160051c82019101614f2a565b805f525f6020812081835555610a1f565b634e487b7160e01b5f52602160045260245ffd5b0151905089806106cc565b9190600185015f52805f20905f935b601f1984168510610ac3576001945083601f19811610610aab575b505050811b0160018301556106d9565b01515f1960f88460031b161c19169055888080610a9b565b81810151835560209485019460019093019290910190610a80565b634e487b7160e01b5f52601160045260245ffd5b632ef1310560e01b5f5260045ffd5b635435b28960e11b5f5260045ffd5b6282b42960e81b5f5260045ffd5b506009546001600160a01b03163314156105a0565b83356001600160401b03811161039f57602091610b57839260243691870101614d73565b81520193019261057e565b3461039f57602036600319011261039f57600435335f52600b60205260ff60405f2054161580610c6a575b610b1057610b99615396565b805f52601660205260405f20805415610c5b5760ff600682015416610c4c575f82815260176020908152604080832033845290915290205460ff16610c3d575f8281526017602090815260408083203384529091529020805460ff191660011790556005018054909190610c0c90614e60565b8092556040519182527f90e65a5a1f0f2881cb733e6db6d511d2de274c963edb72732ba3cf19e584458160203393a3005b63080fc0bd60e11b5f5260045ffd5b630dc1019760e01b5f5260045ffd5b631dc0650160e31b5f5260045ffd5b506009546001600160a01b0316331415610b8d565b3461039f57602036600319011261039f57610c98614ce8565b335f52600b60205260ff60405f2054161580610d5b575b610b1057610cbb615396565b6001600160a01b03165f818152600d602052604090206003015460ff1615610d4c57805f52600d60205260ff60405f205460a01c16610d3d57805f52600d60205260405f20600160a01b60ff60a01b198254161790557f2f96efecc5f066a5f72d6499d0f37ef0efbb94ebc5ba9deae36e7d14aad124606020604051428152a2005b633496f4c760e01b5f5260045ffd5b63148fe22160e11b5f5260045ffd5b506009546001600160a01b0316331415610caf565b3461039f57604036600319011261039f57610d89614cfe565b6004355f52601360205260405f209060018060a01b03165f5260205260e060405f2060018060a01b0381541690600181015490600281015460ff600383015416600483015491600660ff600586015416940154946040519687526020870152604086015260608501526080840152151560a083015260c0820152f35b3461039f57602036600319011261039f57600435610e216153b0565b610e29615396565b805f52601660205260405f2090815415610c5b57600682019060ff825416610c4c5760036005840154106111e85760048301546001600160a01b03169233841415806111d1575b806111bc575b6111ad57600181019283545f52601060205260405f20600160ff600283015416610e9f81614d41565b610ea881614d41565b610eb181614d41565b0361119e576019546040516370a0823160e01b8152600481018890526001600160a01b0390911696906020816024818b5afa90811561110e575f9161116c575b506002850197885480921061115d57604051636eb1769f60e11b815260208180610f1f308860048401615210565b0381855afa801561110e5783915f91611128575b501061111957610f44923091615749565b610f55600a87549201918254614f1d565b90556003845492835f52601460205260405f209384558654610f7c60018601918254614f1d565b90558654610f8e838601918254614f1d565b90550191610f9f836004830161522a565b600542910155600160ff198254161790558254928454936040519463e939567960e01b865260048601525f8560248173__$ffd0c94c66d959deda02fa34153d397f8c$__5af490811561110e5760206110606031611099947f417ed8551af6d1cdb7b47da8bdd5fc25afa202e4d276967d7bcd77d39bdbfe58995f916110ec575b506040519384917002cb4b2b632103232b837b9b4ba32b21d1607d1b828401528051918291018484015e81015f838201520301601f198101835282614c01565b60405161106e604082614c01565b600f81526e1e5a595b1917d9195c1bdcda5d1959608a1b602082015261109386614c24565b92615410565b54809454927f28d8e6772734d37b95a27185e9531f69bbb096eb4c74b5897260e60a45ef9a4e604051806110cf428789846152fc565b0390a36110e36040519283924291846152fc565b0390a260018055005b61110891503d805f833e6111008183614c01565b810190614e6e565b8b611020565b6040513d5f823e3d90fd5b63fad863f560e01b5f5260045ffd5b9150506020813d602011611155575b8161114460209383614c01565b8101031261039f578290518b610f33565b3d9150611137565b636f9f839560e11b5f5260045ffd5b90506020813d602011611196575b8161118760209383614c01565b8101031261039f575188610ef1565b3d915061117a565b63030184d760e31b5f5260045ffd5b635a6ce09560e11b5f5260045ffd5b506009546001600160a01b0316331415610e76565b50335f52600b60205260ff60405f20541615610e70565b63125e6df560e11b5f5260045ffd5b3461039f57602036600319011261039f57600435600e5481101561039f57600e5481101561125b57600e5f527fbb7b4a454dc3493923482f07822329ed19e8244eff582cc204f8554c3620c3fd01546040516001600160a01b039091168152602090f35b634e487b7160e01b5f52603260045260245ffd5b3461039f57604036600319011261039f5760043561128b614cfe565b90335f52600b60205260ff60405f20541615806114cc575b610b1057801580156114c1575b6114b2576112bc6153b0565b6112c4615396565b805f526010602052600260ff8160405f200154166112e181614d41565b036114a3576001600160a01b03821691821561149457815f52601460205260405f20600381019081549283156114855760058201546276a7008101809111610ade57421061147657600284925f61135295550161133f838254614f1d565b90556019546001600160a01b03166153d0565b60405163e939567960e01b8152600481018290525f8160248173__$ffd0c94c66d959deda02fa34153d397f8c$__5af491821561110e57611404603b7f5388434f350d6a06a298af73c74c2a01c5b800b21268dfb84b426910dfdb112f946020945f9161145c575b506040519485917a02ab731b630b4b6b2b2103cb4b2b632103932b1b7bb32b932b21d1602d1b828401528051918291018484015e81015f838201520301601f198101845283614c01565b61144a6040928351906114178583614c01565b600f82526e1e5a595b1917dc9958dbdd995c9959608a1b6020830152845191611441602084614c01565b5f835287615410565b8151908152426020820152a360018055005b61147091503d805f833e6111008183614c01565b886113ba565b63478f84e760e01b5f5260045ffd5b63fd67680960e01b5f5260045ffd5b63d92e233d60e01b5f5260045ffd5b631a6031a360e31b5f5260045ffd5b63136ba46b60e11b5f5260045ffd5b5060115481116112b0565b506009546001600160a01b03163314156112a3565b3461039f57602036600319011261039f576001600160a01b03611502614ce8565b16805f52600d60205260ff600360405f2001541680611529575b6020906040519015158152f35b505f52600d602052602060ff60405f205460a01c1661151c565b614e09565b3461039f575f36600319011261039f57602060405160058152f35b3461039f575f36600319011261039f5761157b615396565b335f52600d60205260ff600360405f2001541615610d4c57335f52600d602052600360405f200160ff1981541690556115b5600f54614e3b565b600f556040514281527fe0c638b9625a325005e6284e1bc01fa3455c7bec5ae11bcf9de99160980ae91060203392a2005b3461039f57604036600319011261039f576115ff614cfe565b5f60c060405161160e81614be6565b8281528260208201528260408201528260608201528260808201528260a082015201526004355f52601360205260405f209060018060a01b03165f5260205260e060405f2060405161165f81614be6565b60018060a01b038254169182825260018101546020830190815260ff6002830154604085019081528160038501541690606086019182526004850154936080870194855260c06006856005890154169760a08a019815158952015497019687526040519788525160208801525160408701525116606085015251608084015251151560a08301525160c0820152f35b3461039f57606036600319011261039f576004356024359060443560ff811680910361039f57335f52600d60205260ff600360405f2001541615611b5557335f52600d60205260ff60405f205460a01c1615611b465781158015611b3b575b6114b2576117596153b0565b611761615396565b815f52601060205260405f2060ff60028201541661177e81614d41565b611b2c5760038101544211611b1d5760018211611b0e575f83815260136020908152604080832033845290915290209060018303611a89578415611a7a576019546040516370a0823160e01b81523360048201526001600160a01b0390911690602081602481855afa801561110e5787915f91611a45575b5010611a365760206040518092636eb1769f60e11b8252818061181d303360048401615210565b03915afa801561110e5786915f91611a01575b50106119f257600282019182541515806119e0575b6119d15780546001600160a01b0319163317815560018101859055825460049390611871908890614f1d565b905560038101600160ff19825416179055824291015501611893848254614f1d565b90556118a183601a54614f1d565b601a556118ba83303360018060a01b0360195416615749565b604051635e57966d60e01b8152336004820152905f8260248173__$ffd0c94c66d959deda02fa34153d397f8c$__5af4801561110e57602d61193c916020945f916119b7575b506040519485916c02b37ba329031b0b9ba10313c9609d1b828401528051918291018484015e81015f838201520301601f198101845283614c01565b61197c60409283519061194f8583614c01565b60098252681d9bdd1957d8d85cdd60ba1b6020830152845191611973602084614c01565b5f835286615410565b8151938452602084015242908301527f8f74d45a8df9a2c9af102275bbb4540ccb175cff870770d345e5fb199d8cacfa60603393a360018055005b6119cb91503d805f833e6111008183614c01565b87611900565b6370973d2560e11b5f5260045ffd5b50600160ff6003830154161415611845565b6313be252b60e01b5f5260045ffd5b9150506020813d602011611a2e575b81611a1d60209383614c01565b8101031261039f5785905187611830565b3d9150611a10565b631e9acf1760e31b5f5260045ffd5b9150506020813d602011611a72575b81611a6160209383614c01565b8101031261039f57869051886117f6565b3d9150611a54565b636eb4fb7f60e11b5f5260045ffd5b60028201918254611aff5785611af05760065f918260059560018060a01b03331660018060a01b0319845416178355886001840155556003810160ff19815416905542600482015584810160ff198154169055015501611ae98154614e60565b90556118ba565b63035ed45160e51b5f5260045ffd5b637c9a1cf960e01b5f5260045ffd5b63eee3496160e01b5f5260045ffd5b63387b2e5560e11b5f5260045ffd5b633ee3282d60e11b5f5260045ffd5b50601154821161174d565b63174a0ba560e31b5f5260045ffd5b631687e47360e31b5f5260045ffd5b3461039f57602036600319011261039f576004355f52601d602052602060ff60405f205416604051908152f35b3461039f576020611baa611ba436614db9565b91614fc2565b604051908152f35b3461039f575f36600319011261039f576040515f600654611bd281614b5c565b8084529060018116908115611c5d5750600114611c12575b611c0e83611bfa81850382614c01565b604051918291602083526020830190614cc4565b0390f35b60065f9081525f5160206158765f395f51905f52939250905b808210611c4357509091508101602001611bfa611bea565b919260018160209254838588010152019101909291611c2b565b60ff191660208086019190915291151560051b84019091019150611bfa9050611bea565b3461039f575f36600319011261039f576040515f600554611ca181614b5c565b8084529060018116908115611c5d5750600114611cc857611c0e83611bfa81850382614c01565b60055f9081527f036b6384b5eca791c62761152d0c79bb0604c104a5fb6f4eb0703f3154bb3db0939250905b808210611d0c57509091508101602001611bfa611bea565b919260018160209254838588010152019101909291611cf4565b3461039f5761010036600319011261039f57611d40614ce8565b6024356001600160401b03811161039f57611d5f903690600401614d73565b906044356001600160401b03811161039f57611d7f903690600401614d73565b906064356001600160401b03811161039f57611d9f903690600401614d73565b926084356001600160401b03811161039f57611dbf903690600401614d73565b9360a4356001600160401b03811161039f57611ddf903690600401614d73565b9360e4356001600160a01b038116939084900361039f575f5160206158b65f395f51905f5254604081901c60ff161595906001600160401b038116801590816123c9575b60011490816123bf575b1590816123b6575b506123a7576001600160401b031981166001175f5160206158b65f395f51905f52558661237f575b506001600160a01b0316801561149457841561149457600980546001600160a01b0319169190911790558051906001600160401b0382116109c757611ea3600254614b5c565b601f8111612344575b50602090601f83116001146122df57611ece92915f9183610a66575050614fb0565b6002555b8051906001600160401b0382116109c757611ef782611ef2600354614b5c565b614f40565b602090601f831160011461227a57611f1892915f918361226f575050614fb0565b6003555b8051906001600160401b0382116109c757611f38600454614b5c565b601f8111612234575b50602090601f83116001146121cf57611f6392915f91836121c4575050614fb0565b6004555b83516001600160401b0381116109c757611f82600554614b5c565b601f8111612193575b50602094601f821160011461213057611fb09293949582915f92612125575050614fb0565b6005555b82516001600160401b0381116109c757611fcf600654614b5c565b601f81116120df575b506020601f821160011461207c578190611ffb9394955f92612071575050614fb0565b6006555b60c435600855601980546001600160a01b03191691909117905561201f57005b60ff60401b195f5160206158b65f395f51905f5254165f5160206158b65f395f51905f52557fc7f505b2f371ae2175ee4913f4499e1f2633a7b5936321eed1cdaeb6115181d2602060405160018152a1005b0151905085806106cc565b601f1982169060065f52805f20915f5b8181106120c7575095836001959697106120af575b505050811b01600655611fff565b01515f1960f88460031b161c191690558480806120a1565b9192602060018192868b01518155019401920161208c565b60065f52612115905f5160206158765f395f51905f52601f840160051c8101916020851061211b575b601f0160051c0190614f2a565b84611fd8565b9091508190612108565b0151905086806106cc565b601f1982169560055f52805f20915f5b88811061217b57508360019596979810612163575b505050811b01600555611fb4565b01515f1960f88460031b161c19169055858080612155565b91926020600181928685015181550194019201612140565b6121be9060055f5260205f20601f840160051c8101916020851061211b57601f0160051c0190614f2a565b85611f8b565b0151905087806106cc565b90601f1983169160045f52815f20925f5b81811061221c5750908460019594939210612204575b505050811b01600455611f67565b01515f1960f88460031b161c191690558680806121f6565b929360206001819287860151815501950193016121e0565b60045f52612269905f5160206158965f395f51905f52601f850160051c8101916020861061211b57601f0160051c0190614f2a565b86611f41565b0151905088806106cc565b90601f1983169160035f52815f20925f5b8181106122c757509084600195949392106122af575b505050811b01600355611f1c565b01515f1960f88460031b161c191690558780806122a1565b9293602060018192878601518155019501930161228b565b90601f1983169160025f52815f20925f5b81811061232c5750908460019594939210612314575b505050811b01600255611ed2565b01515f1960f88460031b161c19169055888080612306565b929360206001819287860151815501950193016122f0565b60025f52612379905f5160206158165f395f51905f52601f850160051c8101916020861061211b57601f0160051c0190614f2a565b88611eac565b6001600160481b0319166001600160401b01175f5160206158b65f395f51905f525588611e5d565b63f92ee8a960e01b5f5260045ffd5b9050158a611e35565b303b159150611e2d565b889150611e23565b3461039f575f36600319011261039f5760206040516276a7008152f35b3461039f57602036600319011261039f5760043580158015612578575b6114b2575f52601060205260405f2060405161242681614baf565b8154815261243660018301614c24565b602082015261246360ff600284015481811661245181614d41565b604085015260081c1660608301614e54565b600382015460808201908152600483015460a08301908152600584015460c084015260068401549260e08101938452600785015461010082015260ff6008860154166124ae81614d41565b6101208201526009850180546124c381614e24565b916124d16040519384614c01565b81835260208301905f5260205f205f915b83831061255b57505050506020956101e091610140840152600a810154610160840152600b810154610180840152600c8101546101a0840152600d8101546101c0840152600e60018060a01b039101541691015251915190519110159081612550575b506040519015158152f35b905042111582612545565b60016020819261256a85614c24565b8152019201920191906124e2565b50601154811161240b565b3461039f57602036600319011261039f576004355f52601060205260405f206040516125ae81614baf565b815481526125be60018301614c24565b60208201526125d960ff600284015481811661245181614d41565b60038201546080820152600482015460a0820190815260058301549160c08101928352600684015460e0820152600784015461010082015260ff60088501541661262281614d41565b61012082015260098401805461263781614e24565b916126456040519384614c01565b81835260208301905f5260205f205f915b8383106126b957505050506040946101e091610140840152600a810154610160840152600b810154610180840152600c8101546101a0840152600d8101546101c0840152600e60018060a01b039101541691015251905182519182526020820152f35b6001602081926126c885614c24565b815201920192019190612656565b3461039f57602036600319011261039f576126ef614ce8565b6009546001600160a01b03163303612769576001600160a01b03165f818152600c602052604090205460ff161561275a57805f52600c60205260405f2060ff1981541690557f76bb6d79491c6da68a221b5e68656913a98c57c76079f10d0a47b1fb7e847fcc5f80a2005b63943ebde360e01b5f5260045ffd5b6393687c0b60e01b5f5260045ffd5b3461039f575f36600319011261039f576009546001600160a01b03163303612769576127a2615396565b600160ff195f5416175f557f62e78cea01bee320cd4e420270b5ea74000d11b0c9f74754ebdbfc544b05a2586020604051338152a17f6da89e41e37601c1c3b56c6d0c90cd90d1bbb5b7eb44e4d80641e91121ee58be6020604051428152a1005b3461039f57604036600319011261039f5761281c614cfe565b6004355f52601760205260405f209060018060a01b03165f52602052602060ff60405f2054166040519015158152f35b3461039f575f36600319011261039f57604051806020600e5492838152018092600e5f5260205f20905f5b8181106128d8575050508161288d910382614c01565b604051918291602083019060208452518091526040830191905f5b8181106128b6575050500390f35b82516001600160a01b03168452859450602093840193909201916001016128a8565b82546001600160a01b0316845260209093019260019283019201612877565b3461039f57602036600319011261039f576004355f60a060405161291a81614bcb565b828152826020820152826040820152826060820152606060808201520152801580156129e8575b6114b2575f52601460205260405f2060405161295c81614bcb565b81548152600182015491602082019283526129dd60028201549160408401928352600381015460608501908152600561299760048401614c24565b926080870193845201549360a08601948552604051968796602088525160208801525160408701525160608601525160808501525160c060a085015260e0840190614cc4565b905160c08301520390f35b506011548111612941565b3461039f57604036600319011261039f57600435612a0f614cfe565b90335f52600b60205260ff60405f2054161580612cc7575b610b105780158015612cbc575b6114b257612a406153b0565b612a48615396565b805f52601060205260405f2060ff600282015416612a6581614d41565b60018114159081612ca7575b50610b0157815f52601d60205260ff60405f205416926003841015612c9857825f52601b60205260405f20548015612c89576001850160ff8111610ade57845f52601c60205260ff60405f2054911695600187145f14612bd25750601e810290808204601e1481151715610ade57612af16064612af69304938492614e47565b614f1d565b600484015410612bc3578015612bb4577ffb350cef5f96619ae823583baae69fdcfdb6d0ff2bbcd8b2c33b8e4e9be8ca61926040926001600160a01b038116612bac5750600e01546001600160a01b0316905b601954612b6290829084906001600160a01b03166153d0565b845f52601b602052825f20612b78828254614e47565b90555f858152601d602090815290849020805460ff19168817905583519687528601526001600160a01b031693a360018055005b905090612b49565b631f2a200560e01b5f5260045ffd5b63bcf01a7b60e01b5f5260045ffd5b60028703612c005750602881029080820460281481151715610ade57612af16064612af69304938492614e47565b905f916001811015612c6b575b60021115612c41575b612af69180821115612c3757612c2f612af19183614e47565b938492614e47565b50612af15f612c2f565b6028810281810460281482151715610ade57612af6926064612c64920490614f1d565b9150612c16565b9150601e8102818104601e1482151715610ade576064900491612c0d565b63886b5d7960e01b5f5260045ffd5b63749a53d160e11b5f5260045ffd5b60029150612cb481614d41565b141584612a71565b506011548111612a34565b506009546001600160a01b0316331415612a27565b3461039f57602036600319011261039f57600435335f52600b60205260ff60405f2054161580612e59575b610b105780158015612e4e575b6114b257612d20615396565b805f52601060205260405f206002810190612d5e82549160ff831690612d4582614d41565b612d4e82614d41565b600b600a82015491015491615734565b15612e3f5760125415612e305760ff19166002179055601254612d8090614e3b565b6012557f8de6488143d44b7fa431ad228e2cb37f23f7ca68e94fb3f783dc97a427c8319e60206040612e298151612db78382614c01565b60118152701a5b9d995cdd1b595b9d17d8db1bdcd959607a1b848201528251612de1606082614c01565b602a81527f496e766573746d656e7420636c6f736564206166746572207969656c64206469858201526939ba3934b13aba34b7b760b11b848201528351916114418684614c01565b51428152a2005b635942272960e11b5f5260045ffd5b63194a12d360e21b5f5260045ffd5b506011548111612d14565b506009546001600160a01b0316331415612d07565b3461039f57602036600319011261039f57600435335f52600b60205260ff60405f2054161580613016575b610b10578015801561300b575b6114b257612eb2615396565b805f52601060205260405f2060048101908154906006810191825460038301549110159081613000575b5015610b01576002019081549060ff8216612ef681614d41565b611b2c5784937fbedc4e5ac6876307c4b4b5761039aa2ebce89052490a34e15cc655d9142ba0dc93600160209460ff1916179055612f35601254614e60565b60125554905480821015612ff957505b835f52601b82528060405f2055835f52601c82528060405f2055604051908152a27f63845abb6c5a9787d94abca8b6ebc7bf82471da0740224f90497364dd4bcd78560206040612e298151612f9a8382614c01565b6011815270696e766573746d656e745f61637469766560781b848201528251612fc38482614c01565b601d81527f496e766573746d656e74206163746976617465642062792061646d696e000000858201528351916114418684614c01565b9050612f45565b905042111585612edc565b506011548111612ea6565b506009546001600160a01b0316331415612e99565b3461039f575f36600319011261039f576040515f60035461304b81614b5c565b8084529060018116908115611c5d575060011461307257611c0e83611bfa81850382614c01565b60035f9081527fc2575a0e9e593c00f959f8c92f12db2869c3395a3b0502d05e2516446f71f85b939250905b8082106130b657509091508101602001611bfa611bea565b91926001816020925483858801015201910190929161309e565b3461039f57602036600319011261039f576130e9614ce8565b6009546001600160a01b03163303612769576001600160a01b03811690811561149457815f52600b60205260ff60405f2054166131a7575f828152600b60205260409020805460ff19166001179055600a5490600160401b8210156109c75761315d8260016131819401600a55600a614d2c565b9080546001600160a01b0360039390931b83811b199091169290931690921b179055565b7f44d6d25963f097ad14f29f06854a01f575648a1ef82f30e562ccd3889717e3395f80a2005b631c3681a560e11b5f5260045ffd5b3461039f575f36600319011261039f576020601554604051908152f35b614dee565b3461039f575f36600319011261039f576040515f6007546131f881614b5c565b8084529060018116908115611c5d575060011461321f57611c0e83611bfa81850382614c01565b60075f9081525f5160206158565f395f51905f52939250905b80821061325057509091508101602001611bfa611bea565b919260018160209254838588010152019101909291613238565b3461039f57604036600319011261039f576004356001600160401b03811161039f5761329a903690600401614d73565b6024356001600160401b03811161039f576132b9903690600401614d73565b335f52600b60205260ff60405f2054161580613490575b610b10576132dc615396565b8151156134815781516001600160401b0381116109c75761330281611ef2600354614b5c565b602092601f821160011461342057613324929382915f92613415575050614fb0565b6003555b80516001600160401b0381116109c757613343600754614b5c565b601f81116133da575b50602091601f821160011461337d5761336d925f9183613372575050614fb0565b600755005b0151905083806106cc565b601f1982169260075f52805f20915f5b8581106133c2575083600195106133aa575b505050811b01600755005b01515f1960f88460031b161c1916905582808061339f565b9192602060018192868501518155019401920161338d565b60075f5261340f905f5160206158565f395f51905f52601f840160051c8101916020851061211b57601f0160051c0190614f2a565b8261334c565b0151905084806106cc565b601f1982169360035f52805f20915f5b8681106134695750836001959610613451575b505050811b01600355613328565b01515f1960f88460031b161c19169055838080613443565b91926020600181928685015181550194019201613430565b63d937d5df60e01b5f5260045ffd5b506009546001600160a01b03163314156132d0565b3461039f575f36600319011261039f57602060ff5f54166040519015158152f35b3461039f57602036600319011261039f576001600160a01b036134e7614ce8565b165f52600c602052602060ff60405f2054166040519015158152f35b3461039f57602036600319011261039f576004355f52601660205260405f208054600182015491600281015461353b60038301614c24565b9160018060a01b0360048201541692613586600583015491600760ff600686015416940154946040519889988952602089015260408801526101006060880152610100870190614cc4565b93608086015260a0850152151560c084015260e08301520390f35b3461039f575f36600319011261039f576020600854604051908152f35b3461039f57602036600319011261039f576135d7614ce8565b6009546001600160a01b03163303612769576001600160a01b0316801561149457805f52600c60205260ff60405f20541661364957805f52600c60205260405f20600160ff198254161790557f523e827b00cfde26c023198872374e1daad3b202fe81de569305116b2fc4f3295f80a2005b636057e30560e11b5f5260045ffd5b3461039f575f36600319011261039f576040515f60045461367881614b5c565b8084529060018116908115611c5d575060011461369f57611c0e83611bfa81850382614c01565b60045f9081525f5160206158965f395f51905f52939250905b8082106136d057509091508101602001611bfa611bea565b9192600181602092548385880101520191019092916136b8565b3461039f576136f836614db9565b90335f52600c60205260ff60405f2054161580613780575b8061376b575b610b105782158015613760575b6114b25761372f6153b0565b613737615396565b6005600a54106137515761374a92614fc2565b5060018055005b631fefcd9f60e31b5f5260045ffd5b506011548311613723565b506009546001600160a01b0316331415613716565b50335f52600b60205260ff60405f20541615613710565b3461039f575f36600319011261039f576020601254604051908152f35b3461039f57604036600319011261039f576137cd614ce8565b335f52600b60205260ff60405f205416158061393f575b610b10576137f0615396565b6001600160a01b03811690811561149457815f52600d60205260ff600360405f2001541661393057600f546008541115613921576138c260405161383381614b94565b8381525f6020808301828152602435604080860191825242606087019081526001608088018181528b8852600d909652919095209551865493516001600160a81b03199094166001600160a01b03919091161792151560a01b60ff60a01b1692909217855551908401559051600283015551600391909101805491151560ff1660ff1992909216919091179055565b600e5490600160401b8210156109c75761315d8260016138e79401600e55600e614d2c565b6138f2600f54614e60565b600f557fede8eed4383e9241982619b94dd83e488b274cced0fd07b8c0092a393defd52f6020604051428152a2005b63448897d760e11b5f5260045ffd5b6340803a5f60e11b5f5260045ffd5b506009546001600160a01b03163314156137e4565b3461039f575f36600319011261039f57602060405160288152f35b3461039f57602036600319011261039f5760043580158015613bb3575b6114b2575f8181526013602090815260408083203384529091529020600281015415613ba45760ff600360019201541603613b95576139c96153b0565b6139d1615396565b805f52601060205260405f2090600160ff6002840154166139f181614d41565b0361119e575f818152601360209081526040808320338452909152902060058101805460ff8116613b86576002830154926004860154600a870154948115613b5557818111613b205785810290808204871490151715610ade5704958615613b1157600b0193613a62878654614f1d565b11613b02578592600160069360ff19161790550155613a82838254614f1d565b9055805f526014602052600360405f2060028101613aa1858254614f1d565b905501613aaf838254614e47565b9055601954613aca90839033906001600160a01b03166153d0565b6040519182524260208301527fc64c05237373d420472e7259849c0a314d9c3424021920543562ceffa9b10f9460403393a360018055005b635c1ed68560e11b5f5260045ffd5b633dfa692b60e11b5f5260045ffd5b60405162461bcd60e51b815260206004820152600d60248201526c496e76616c6964207374616b6560981b6044820152606490fd5b60405162461bcd60e51b81526020600482015260096024820152684e6f207374616b657360b81b6044820152606490fd5b631bea808560e11b5f5260045ffd5b63e3cfa09d60e01b5f5260045ffd5b636567cc4d60e11b5f5260045ffd5b50601154811161398c565b3461039f575f36600319011261039f576009546001600160a01b03163303612769575f5460ff811615613c475760ff19165f557f5db9ee0a495bf2e6ff9c91a7834c1ba4fdd244a5e8aa4e537bd38aeae4b073aa6020604051338152a17f3cf7f4812abee6b0b46f8d2cc840074832139c14b9f24b3f9261b62b0b0376256020604051428152a1005b638dfc202b60e01b5f5260045ffd5b3461039f57604036600319011261039f57600435613c72614cfe565b9080158015613c8c575b6114b257602091611baa91614ed0565b506011548111613c7c565b3461039f57613ca536614b2d565b335f52600c60205260ff60405f2054161580613f1b575b80613f06575b610b105781158015613efb575b6114b257613cdb615396565b815f52601060205260405f2060ff60088201541690613cf982614d41565b613d0282614d41565b600c810190613d1382548094615715565b15613eec57831592839184159485613ee2575b613ed3576003019384549080613ec8575b15613e8f576201518086029286840462015180141715610ade57613d6592613d5e91614f1d565b8455614e60565b81556040519263e939567960e01b845260048401525f8360248173__$ffd0c94c66d959deda02fa34153d397f8c$__5af491821561110e57613e1d600560356020957f514af8ba7abbcaa858d00568e0788cd39416a39195eac9780f8730cd4fcfb103975f91613e75575b506040519687917402232b0b23634b7329032bc3a32b73232b210313c9605d1b828401528051918291018484015e810164206461797360d81b838201520301601a19810186520184614c01565b613e65604093845190613e308683614c01565b6011825270191958591b1a5b9957d95e1d195b991959607a1b6020830152855191613e5c602084614c01565b5f835288615410565b54905482519182526020820152a2005b613e8991503d805f833e6111008183614c01565b89613dd0565b60405162461bcd60e51b815260206004820152601160248201527024b73b30b634b21032bc3a32b739b4b7b760791b6044820152606490fd5b50605a861115613d37565b637a5ce64b60e11b5f5260045ffd5b50605a8611613d26565b63a0ef36df60e01b5f5260045ffd5b506011548211613ccf565b506009546001600160a01b0316331415613cc2565b50335f52600b60205260ff60405f20541615613cbc565b3461039f57602036600319011261039f57600435335f52600b60205260ff60405f205416158061406c575b610b105780158015614061575b6114b257613f76615396565b805f52601060205260405f2060048101546006820154600383015491109081614057575b5015610b0157600201805460ff8116613fb281614d41565b611b2c5760039060ff19161790557f477401ab661b0c0f9131c8b3dc7d8bf57827b759310a27e8083266956dda72be60206040612e298151613ff48382614c01565b6015815274696e766573746d656e745f696e636f6d706c65746560581b8482015282516140218482614c01565b601f81527f496e766573746d656e74206d61726b656420617320696e636f6d706c65746500858201528351916114418684614c01565b9050421183613f9a565b506011548111613f6a565b506009546001600160a01b0316331415613f5d565b3461039f57602036600319011261039f5760043580158015614175575b6114b2576140aa6153b0565b6140b2615396565b805f526010602052600360ff600260405f200154166140d081614d41565b03614166575f8181526013602090815260408083203384529091529020600201805491908215614157575f905561410982601a54614e47565b601a5560195461412590839033906001600160a01b03166153d0565b6040519182527f459d5aef2c549903c1eeb1736f5728845d5ccf82537ddd5bf8035795eee8926360203393a360018055005b630c8b4ebb60e01b5f5260045ffd5b63425c70e560e01b5f5260045ffd5b50601154811161409e565b3461039f57602036600319011261039f576001600160a01b036141a1614ce8565b165f52600b602052602060ff60405f2054166040519015158152f35b3461039f575f36600319011261039f576020601154604051908152f35b3461039f57602036600319011261039f576004355f6101e06040516141fe81614baf565b828152606060208201528260408201528260608201528260808201528260a08201528260c08201528260e0820152826101008201528261012082015260606101408201528261016082015282610180820152826101a0820152826101c08201520152801580156144dd575b6114b2575f52601060205260405f2060405161428481614baf565b8154815261429460018301614c24565b9060208101918252600283015460ff81169360408301946142b481614d41565b85526142ca60ff606085019360081c1683614e54565b6003810154926080810193845260048201549360a08201948552600583015460c08301908152600684015460e084019081526007850154610100850190815260ff6008870154169161012086019261432181614d41565b83526009870193845461433381614e24565b956143416040519788614c01565b81875260208701905f5260205f205f915b8383106144c057505050506101408701948552600a8801549961016088019a8b52600b890154966101808901978852600c8a0154986101a08101998a52600d8b01549a6101c082019b8c52600160a01b6001900390600e0154169b6101e082019c8d526040519e8f92602084525160208401525160408301610200905261022083016143dd91614cc4565b9f516143e881614d41565b606083015251906080016143fb91614d4b565b5160a08d01525160c08c01525160e08b0152516101008a0152516101208901525161442581614d41565b6101408801525194601f1987890301610160880152855180895260208901908060051b8a0160200197602001915f905b82821061449457505091516101808901525050516101a0860152516101c0850152516101e0840152516001600160a01b03166102008301528190039150f35b909192986020806144b26001938f601f199082030186528d51614cc4565b9b0192019201909291614455565b6001602081926144cf85614c24565b815201920192019190614352565b506011548111614269565b3461039f57602036600319011261039f57614501614ce8565b6009546001600160a01b03163303612769576001600160a01b03165f818152600b602052604090205460ff161561461e575f818152600b60205260408120805460ff191690555b600a549081811015614617578261455e82614d14565b905460039190911b1c6001600160a01b03161461457f576001915001614548565b5f198201918211610ade5761315d6145996145b193614d14565b905460039190911b1c6001600160a01b031691614d14565b600a548015614603575f19016145c681614d14565b81549060018060a01b039060031b1b19169055600a555b7fa3b62bc36326052d97ea62d63c3d60308ed4c3ea8ac079dd8499f1e9c4f80c0f5f80a2005b634e487b7160e01b5f52603160045260245ffd5b50506145dd565b6355098f2760e01b5f5260045ffd5b3461039f57602036600319011261039f57600435600a5481101561039f57614656602091614d14565b905460405160039290921b1c6001600160a01b03168152f35b3461039f575f36600319011261039f576020600f54604051908152f35b3461039f57602036600319011261039f576004355f52601b602052602060405f2054604051908152f35b3461039f57602036600319011261039f5760043580158015614831575b6114b2575f52601860205260405f208054906146ee82614e24565b916146fc6040519384614c01565b8083526020830180925f5260205f205f915b8383106147ca57848660405191829160208301906020845251809152604083019060408160051b85010192915f905b82821061474c57505050500390f35b919360019193955060208091603f1989820301855287519060806147ab61479961477f855160a0865260a0860190614cc4565b868601518786015260408601518582036040870152614cc4565b60608501518482036060860152614cc4565b9281878060a01b0391015116910152960192019201859493919261473d565b600560206001926040516147dd81614b94565b6147e686614c24565b815284860154838201526147fc60028701614c24565b604082015261480d60038701614c24565b6060820152848060a01b03600487015416608082015281520192019201919061470e565b5060115481116146d3565b3461039f57602036600319011261039f576004355f52601c602052602060405f2054604051908152f35b3461039f57602036600319011261039f5761487f614ce8565b335f52600b60205260ff60405f2054161580614915575b610b10576148a2615396565b6001600160a01b03165f818152600d602052604090206003015460ff1615610d4c57805f52600d602052600360405f200160ff1981541690556148e6600f54614e3b565b600f557f3ac963493df564de734d98633f1145d21512e282ba4c02d3c1011119bf7f28626020604051428152a2005b506009546001600160a01b0316331415614896565b3461039f57602036600319011261039f576001600160a01b0361494b614ce8565b165f52600d60205260a060405f2080549060018101549060ff60036002830154920154169160ff60405194600180881b0381168652861c16151560208501526040840152606083015215156080820152f35b3461039f575f36600319011261039f576040515f6002546149bd81614b5c565b8084529060018116908115611c5d57506001146149e457611c0e83611bfa81850382614c01565b60025f9081525f5160206158165f395f51905f52939250905b808210614a1557509091508101602001611bfa611bea565b9192600181602092548385880101520191019092916149fd565b3461039f575f36600319011261039f576019546040516001600160a01b039091168152602090f35b3461039f575f36600319011261039f576009546040516001600160a01b039091168152602090f35b3461039f57614a8d36614b2d565b905f52601860205260405f20805482101561039f57614b0291614aaf91614b43565b50614ab981614c24565b90614b23600182015491614b15614ad260028301614c24565b93614adf60038401614c24565b92600460018060a01b03910154169460405197889760a0895260a0890190614cc4565b9160208801528682036040880152614cc4565b908482036060860152614cc4565b9060808301520390f35b604090600319011261039f576004359060243590565b805482101561125b575f52600560205f20910201905f90565b90600182811c92168015614b8a575b6020831014614b7657565b634e487b7160e01b5f52602260045260245ffd5b91607f1691614b6b565b60a081019081106001600160401b038211176109c757604052565b61020081019081106001600160401b038211176109c757604052565b60c081019081106001600160401b038211176109c757604052565b60e081019081106001600160401b038211176109c757604052565b601f909101601f19168101906001600160401b038211908210176109c757604052565b9060405191825f825492614c3784614b5c565b8084529360018116908115614ca25750600114614c5e575b50614c5c92500383614c01565b565b90505f9291925260205f20905f915b818310614c86575050906020614c5c928201015f614c4f565b6020919350806001915483858901015201910190918492614c6d565b905060209250614c5c94915060ff191682840152151560051b8201015f614c4f565b805180835260209291819084018484015e5f828201840152601f01601f1916010190565b600435906001600160a01b038216820361039f57565b602435906001600160a01b038216820361039f57565b600a5481101561125b57600a5f5260205f2001905f90565b805482101561125b575f5260205f2001905f90565b60041115610a5257565b906007821015610a525752565b6001600160401b0381116109c757601f01601f191660200190565b81601f8201121561039f57803590614d8a82614d58565b92614d986040519485614c01565b8284526020838301011161039f57815f926020809301838601378301015290565b606060031982011261039f576004359160243591604435906001600160401b03821161039f57614deb91600401614d73565b90565b3461039f575f36600319011261039f576020604051601e8152f35b3461039f575f36600319011261039f57602060405160038152f35b6001600160401b0381116109c75760051b60200190565b8015610ade575f190190565b91908203918211610ade57565b6007821015610a525752565b5f198114610ade5760010190565b60208183031261039f578051906001600160401b03821161039f570181601f8201121561039f57805190614ea182614d58565b92614eaf6040519485614c01565b8284526020838301011161039f57815f9260208093018386015e8301015290565b805f526010602052600360ff600260405f20015416614eee81614d41565b03614f17575f52601360205260405f209060018060a01b03165f52602052600260405f20015490565b50505f90565b91908201809211610ade57565b818110614f35575050565b5f8155600101614f2a565b90601f8211614f4d575050565b614c5c9160035f5260205f20906020601f840160051c8301931061211b57601f0160051c0190614f2a565b9190601f8111614f8757505050565b614c5c925f5260205f20906020601f840160051c8301931061211b57601f0160051c0190614f2a565b8160011b915f199060031b1c19161790565b9091335f52600c60205260ff60405f20541615806151f9575b806151e4575b610b1057811580156151d9575b6114b257614ffa615396565b8215612bb4576005600a541061375157615015601554614e60565b601581905560405190939061010081016001600160401b038111828210176109c7576040528481526020810184815260408201838152606083019485526080830133815260a08401905f825260c08501925f845260e08601944286528a5f52601660205260405f209651875551600187015551600286015560038501965196875160018060401b0381116109c7578a986150b9826150b38554614b5c565b85614f78565b602090601f8311600114615157579361513d936150f78460609b9995600799955f5160206158365f395f51905f529e9c995f92610953575050614fb0565b90555b516004870180546001600160a01b039092166001600160a01b03199092169190911790555160058601555160068501805460ff191691151560ff16919091179055565b51910155604051908152336020820152426040820152a390565b90601f19831691845f52815f20925f5b8181106151be575084600798945f5160206158365f395f51905f529d9b989461513d989460609e9c98600195106151a6575b505050811b0190556150fa565b01515f1960f88460031b161c191690555f8080615199565b8284015185558f9d5060019094019360209384019301615167565b506011548211614fee565b506009546001600160a01b0316331415614fe1565b50335f52600b60205260ff60405f20541615614fdb565b6001600160a01b0391821681529116602082015260400190565b9190918281146152f75761523e8354614b5c565b6001600160401b0381116109c7576152608161525a8454614b5c565b84614f78565b5f93601f82116001146152915761528292939482915f92615286575050614fb0565b9055565b015490505f806106cc565b601f198216905f5260205f2094835f5260205f20915f5b8181106152df575095836001959697106152c7575b505050811b019055565b01545f1960f88460031b161c191690555f80806152bd565b9192600180602092868b0154815501940192016152a8565b509050565b939291908452606060208501525f81549161531683614b5c565b928360608801526001811690815f14615375575060011461533c575b5060409150930152565b90505f5260205f205f905b82821061535e57506040915084016080015f615332565b600181602092546080858a01015201910190615347565b905060809250604093915060ff191682870152151560051b8501015f615332565b60ff5f54166153a157565b63d93c066560e01b5f5260045ffd5b6002600154146153c1576002600155565b633ee5aeb560e01b5f5260045ffd5b60405163a9059cbb60e01b60208201526001600160a01b039092166024830152604480830193909352918152614c5c9161540b606483614c01565b6157bd565b92919091835f52601860205260405f206040519161542d83614b94565b8483526020830142815260408401908582526060850192835260808501933385528054600160401b8110156109c75761546b91600182018155614b43565b95909561570257518051906001600160401b0382116109c757615498826154928954614b5c565b89614f78565b602090601f831160011461569f576154b992915f9183610953575050614fb0565b85555b51600185015551805160028501916001600160401b0382116109c7576154e6826150b38554614b5c565b602090601f831160011461563c5761550792915f9183610953575050614fb0565b90555b51805160038401916001600160401b0382116109c75761552e826150b38554614b5c565b602090601f83116001146155be57936155a5969361556b845f5160206158d65f395f51905f529a98956004956155b3995f92610953575050614fb0565b90555b51910180546001600160a01b0319166001600160a01b03929092169190911790556040516060808252909485949091850190614cc4565b908382036020850152614cc4565b4260408301520390a2565b90601f19831691845f52815f20925f5b8181106156245750846004946155b398946155a59b98945f5160206158d65f395f51905f529d9b986001951061560c575b505050811b01905561556e565b01515f1960f88460031b161c191690555f80806155ff565b929360206001819287860151815501950193016155ce565b90601f19831691845f52815f20925f5b818110615687575090846001959493921061566f575b505050811b01905561550a565b01515f1960f88460031b161c191690555f8080615662565b9293602060018192878601518155019501930161564c565b90601f19831691885f52815f20925f5b8181106156ea57509084600195949392106156d2575b505050811b0185556154bc565b01515f1960f88460031b161c191690555f80806156c5565b929360206001819287860151815501950193016156af565b634e487b7160e01b5f525f60045260245ffd5b60ff60019161572381614d41565b161161572f5760031190565b505f90565b60019061574081614d41565b03614f17571490565b6040516323b872dd60e01b60208201526001600160a01b039283166024820152929091166044830152606480830193909352918152614c5c9161540b608483614c01565b15614f175760641061572f5780159081156157b1575b506157ad57600190565b5f90565b61016d9150115f6157a3565b905f602091828151910182855af11561110e575f513d61580c57506001600160a01b0381163b155b6157ec5750565b635274afe760e01b5f9081526001600160a01b0391909116600452602490fd5b600114156157e556fe405787fa12a823e0f2b7631cc41b3ba8828b3321ca811111fa75cd3aa3bb5aceaa345e06f0f866c55fb2e9ad3a43b90c46c8a2d18568df9f7ea88a7bb1639f7aa66cc928b5edb82af9bd49922954155ab7b0942694bea4ce44661d9a8736c688f652222313e28459528d920b65115c16c04f3efc82aaedc97be59f3f377c0d3f8a35acfbc15ff81a39ae7d344fd709f28e8600b4aa8c65c6b64bfe7fe36bd19bf0c57e16840df040f15088dc2f81fe391c3923bec73e23a9662efc9c229c6a005e588d172174d4a3321e55c326af392fe0e96206d6c0c2cd1032d02e3a7b6921a264697066735822122060082ac56b389aa61e6bbbbccfc60bb63630150d06b36179303df215d6fa583064736f6c634300081e0033f0c57e16840df040f15088dc2f81fe391c3923bec73e23a9662efc9c229c6a00","linkReferences":{"src/libraries/StringUtils.sol":{"StringUtils":[{"start":4227,"length":20},{"start":5152,"length":20},{"start":6536,"length":20},{"start":15924,"length":20}]}}},"methodIdentifiers":{"GRACE_PERIOD_FOR_UNCLAIMED_YIELD()":"99c92a55","MAX_EXTENSIONS()":"c07780f6","PHASE1_PERCENT()":"6833bb77","PHASE2_PERCENT()":"48dccf71","PHASE3_PERCENT()":"6e8c4c92","REQUIRED_ADMIN_COUNT()":"ca749c99","REQUIRED_YIELD_APPROVALS()":"ca90b905","activateInvestment(uint256)":"7485997f","activeInvestmentCount()":"4c35833d","addAdmin(address)":"70480275","addFinanceManager(address)":"53dac930","addMember(address,bytes32)":"49df7208","admins(uint256)":"14bfd6d0","approveYieldDeposit(uint256)":"d9d86610","canActivateInvestment(uint256)":"8a7174d7","claimYield(uint256)":"40bd2e23","closeInvestment(uint256)":"760121c9","coordinates()":"a4b889b7","createInvestment(string,uint8,uint256,uint256,uint8,uint256,string[])":"e3ad2834","creator()":"02d05d3f","depositYield(uint256,uint256,string)":"50af8e34","description()":"7284e416","escrowTotal(uint256)":"0ce52701","escrowedAmount(uint256)":"0f55e9f2","executeYieldDeposit(uint256)":"d1b22b9d","exitDAO()":"c11baa5e","extendDeadline(uint256,uint256)":"2d1fdef6","getAllMembers()":"7c0f6b35","getInvestment(uint256)":"22ae634f","getInvestmentTimeline(uint256)":"0e8bd782","getVote(uint256,address)":"bc3f931f","getVoteCounts(uint256)":"8a241f4c","getWithdrawableAmount(uint256,address)":"359cd45e","getYieldDistribution(uint256)":"7967c623","initialize(address,string,string,string,string,string,uint256,address)":"9f972814","investmentCount()":"246b0e5c","investmentTimeline(uint256,uint256)":"023dc321","investments(uint256)":"fd345c8a","isAdmin(address)":"24d7806c","isFinanceManager(address)":"59014773","isVerifiedMember(address)":"cb261a03","location()":"516f279e","logoURI()":"6bb38b28","markInvestmentIncomplete(uint256)":"2a800659","maxMembership()":"53f0ab14","memberAddresses(uint256)":"cc4e6299","memberCount()":"11aee380","members(address)":"08ae4b0c","name()":"06fdde03","pause()":"8456cb59","paused()":"5c975abb","postalCode()":"a8dfd7fe","proposeYieldDeposit(uint256,uint256,string)":"ab877879","releaseNextPhase(uint256,address)":"78587a0a","releasePhaseCompleted(uint256)":"af38c765","removeAdmin(address)":"1785f53c","removeFinanceManager(address)":"87dbdfcb","removeMember(address)":"0b1ca49a","sweepUnclaimedYield(uint256,address)":"cc2cbf72","totalValueLocked()":"ec18154e","unpause()":"3f4ba83a","updateDAOInfo(string,string)":"6028a4ef","usdcAddress()":"02d45457","verifyMemberKYC(address)":"d6cf2096","vote(uint256,uint256,uint8)":"bbb2eab9","votes(uint256,address)":"d23254b4","withdrawStake(uint256)":"25d5971f","yieldDistributions(uint256)":"ff78c38a","yieldProposalApprovals(uint256,address)":"8172dcba","yieldProposalCount()":"6f6a169d","yieldProposals(uint256)":"544c97bf"},"id":36}