{"abi":[{"type":"constructor","inputs":[],"stateMutability":"nonpayable"},{"type":"function","name":"GRACE_PERIOD_FOR_UNCLAIMED_YIELD","inputs":[],"outputs":[{"name":"","type":"uint256","internalType":"uint256"}],"stateMutability":"view"},{"type":"function","name":"MAX_EXTENSIONS","inputs":[],"outputs":[{"name":"","type":"uint256","internalType":"uint256"}],"stateMutability":"view"},{"type":"function","name":"PHASE1_PERCENT","inputs":[],"outputs":[{"name":"","type":"uint256","internalType":"uint256"}],"stateMutability":"view"},{"type":"function","name":"PHASE2_PERCENT","inputs":[],"outputs":[{"name":"","type":"uint256","internalType":"uint256"}],"stateMutability":"view"},{"type":"function","name":"PHASE3_PERCENT","inputs":[],"outputs":[{"name":"","type":"uint256","internalType":"uint256"}],"stateMutability":"view"},{"type":"function","name":"REQUIRED_ADMIN_COUNT","inputs":[],"outputs":[{"name":"","type":"uint256","internalType":"uint256"}],"stateMutability":"view"},{"type":"function","name":"REQUIRED_YIELD_APPROVALS","inputs":[],"outputs":[{"name":"","type":"uint256","internalType":"uint256"}],"stateMutability":"view"},{"type":"function","name":"activateInvestment","inputs":[{"name":"investmentId","type":"uint256","internalType":"uint256"}],"outputs":[],"stateMutability":"nonpayable"},{"type":"function","name":"activeInvestmentCount","inputs":[],"outputs":[{"name":"","type":"uint256","internalType":"uint256"}],"stateMutability":"view"},{"type":"function","name":"addAdmin","inputs":[{"name":"admin","type":"address","internalType":"address"}],"outputs":[],"stateMutability":"nonpayable"},{"type":"function","name":"addFinanceManager","inputs":[{"name":"manager","type":"address","internalType":"address"}],"outputs":[],"stateMutability":"nonpayable"},{"type":"function","name":"addMember","inputs":[{"name":"wallet","type":"address","internalType":"address"},{"name":"kycProofHash","type":"bytes32","internalType":"bytes32"}],"outputs":[],"stateMutability":"nonpayable"},{"type":"function","name":"admins","inputs":[{"name":"","type":"uint256","internalType":"uint256"}],"outputs":[{"name":"","type":"address","internalType":"address"}],"stateMutability":"view"},{"type":"function","name":"approveYieldDeposit","inputs":[{"name":"proposalId","type":"uint256","internalType":"uint256"}],"outputs":[],"stateMutability":"nonpayable"},{"type":"function","name":"canActivateInvestment","inputs":[{"name":"investmentId","type":"uint256","internalType":"uint256"}],"outputs":[{"name":"","type":"bool","internalType":"bool"}],"stateMutability":"view"},{"type":"function","name":"claimYield","inputs":[{"name":"investmentId","type":"uint256","internalType":"uint256"}],"outputs":[],"stateMutability":"nonpayable"},{"type":"function","name":"closeInvestment","inputs":[{"name":"investmentId","type":"uint256","internalType":"uint256"}],"outputs":[],"stateMutability":"nonpayable"},{"type":"function","name":"coordinates","inputs":[],"outputs":[{"name":"","type":"string","internalType":"string"}],"stateMutability":"view"},{"type":"function","name":"createInvestment","inputs":[{"name":"_name","type":"string","internalType":"string"},{"name":"category","type":"uint8","internalType":"enum ILocalDAO.Category"},{"name":"fundNeeded","type":"uint256","internalType":"uint256"},{"name":"expectedYield","type":"uint256","internalType":"uint256"},{"name":"grade","type":"uint8","internalType":"enum ILocalDAO.Grade"},{"name":"deadline","type":"uint256","internalType":"uint256"},{"name":"documentCIDs","type":"string[]","internalType":"string[]"}],"outputs":[{"name":"investmentId","type":"uint256","internalType":"uint256"}],"stateMutability":"nonpayable"},{"type":"function","name":"creator","inputs":[],"outputs":[{"name":"","type":"address","internalType":"address"}],"stateMutability":"view"},{"type":"function","name":"depositYield","inputs":[{"name":"investmentId","type":"uint256","internalType":"uint256"},{"name":"yieldAmount","type":"uint256","internalType":"uint256"},{"name":"expenseReportCID","type":"string","internalType":"string"}],"outputs":[],"stateMutability":"nonpayable"},{"type":"function","name":"description","inputs":[],"outputs":[{"name":"","type":"string","internalType":"string"}],"stateMutability":"view"},{"type":"function","name":"escrowTotal","inputs":[{"name":"","type":"uint256","internalType":"uint256"}],"outputs":[{"name":"","type":"uint256","internalType":"uint256"}],"stateMutability":"view"},{"type":"function","name":"escrowedAmount","inputs":[{"name":"","type":"uint256","internalType":"uint256"}],"outputs":[{"name":"","type":"uint256","internalType":"uint256"}],"stateMutability":"view"},{"type":"function","name":"executeYieldDeposit","inputs":[{"name":"proposalId","type":"uint256","internalType":"uint256"}],"outputs":[],"stateMutability":"nonpayable"},{"type":"function","name":"exitDAO","inputs":[],"outputs":[],"stateMutability":"nonpayable"},{"type":"function","name":"extendDeadline","inputs":[{"name":"investmentId","type":"uint256","internalType":"uint256"},{"name":"additionalDays","type":"uint256","internalType":"uint256"}],"outputs":[],"stateMutability":"nonpayable"},{"type":"function","name":"getAllMembers","inputs":[],"outputs":[{"name":"","type":"address[]","internalType":"address[]"}],"stateMutability":"view"},{"type":"function","name":"getInvestment","inputs":[{"name":"investmentId","type":"uint256","internalType":"uint256"}],"outputs":[{"name":"","type":"tuple","internalType":"struct ILocalDAO.Investment","components":[{"name":"id","type":"uint256","internalType":"uint256"},{"name":"name","type":"string","internalType":"string"},{"name":"status","type":"uint8","internalType":"enum ILocalDAO.Status"},{"name":"category","type":"uint8","internalType":"enum ILocalDAO.Category"},{"name":"deadline","type":"uint256","internalType":"uint256"},{"name":"upvotes","type":"uint256","internalType":"uint256"},{"name":"downvotes","type":"uint256","internalType":"uint256"},{"name":"fundNeeded","type":"uint256","internalType":"uint256"},{"name":"expectedYield","type":"uint256","internalType":"uint256"},{"name":"grade","type":"uint8","internalType":"enum ILocalDAO.Grade"},{"name":"documentCIDs","type":"string[]","internalType":"string[]"},{"name":"totalYieldGenerated","type":"uint256","internalType":"uint256"},{"name":"totalYieldDistributed","type":"uint256","internalType":"uint256"},{"name":"extensionCount","type":"uint256","internalType":"uint256"},{"name":"createdAt","type":"uint256","internalType":"uint256"},{"name":"createdBy","type":"address","internalType":"address"}]}],"stateMutability":"view"},{"type":"function","name":"getInvestmentTimeline","inputs":[{"name":"investmentId","type":"uint256","internalType":"uint256"}],"outputs":[{"name":"","type":"tuple[]","internalType":"struct ILocalDAO.Activity[]","components":[{"name":"eventType","type":"string","internalType":"string"},{"name":"timestamp","type":"uint256","internalType":"uint256"},{"name":"details","type":"string","internalType":"string"},{"name":"documentCID","type":"string","internalType":"string"},{"name":"actor","type":"address","internalType":"address"}]}],"stateMutability":"view"},{"type":"function","name":"getVote","inputs":[{"name":"investmentId","type":"uint256","internalType":"uint256"},{"name":"voter","type":"address","internalType":"address"}],"outputs":[{"name":"","type":"tuple","internalType":"struct ILocalDAO.Vote","components":[{"name":"voter","type":"address","internalType":"address"},{"name":"investmentId","type":"uint256","internalType":"uint256"},{"name":"numberOfVotes","type":"uint256","internalType":"uint256"},{"name":"voteValue","type":"uint8","internalType":"uint8"},{"name":"timestamp","type":"uint256","internalType":"uint256"},{"name":"hasClaimedYield","type":"bool","internalType":"bool"},{"name":"yieldClaimed","type":"uint256","internalType":"uint256"}]}],"stateMutability":"view"},{"type":"function","name":"getVoteCounts","inputs":[{"name":"investmentId","type":"uint256","internalType":"uint256"}],"outputs":[{"name":"upvotes","type":"uint256","internalType":"uint256"},{"name":"downvotes","type":"uint256","internalType":"uint256"}],"stateMutability":"view"},{"type":"function","name":"getWithdrawableAmount","inputs":[{"name":"investmentId","type":"uint256","internalType":"uint256"},{"name":"voter","type":"address","internalType":"address"}],"outputs":[{"name":"","type":"uint256","internalType":"uint256"}],"stateMutability":"view"},{"type":"function","name":"getYieldDistribution","inputs":[{"name":"investmentId","type":"uint256","internalType":"uint256"}],"outputs":[{"name":"","type":"tuple","internalType":"struct ILocalDAO.YieldDistribution","components":[{"name":"investmentId","type":"uint256","internalType":"uint256"},{"name":"totalAmount","type":"uint256","internalType":"uint256"},{"name":"distributedAmount","type":"uint256","internalType":"uint256"},{"name":"remainingAmount","type":"uint256","internalType":"uint256"},{"name":"expenseReportCID","type":"string","internalType":"string"},{"name":"timestamp","type":"uint256","internalType":"uint256"}]}],"stateMutability":"view"},{"type":"function","name":"initialize","inputs":[{"name":"_creator","type":"address","internalType":"address"},{"name":"_name","type":"string","internalType":"string"},{"name":"_description","type":"string","internalType":"string"},{"name":"_location","type":"string","internalType":"string"},{"name":"_coordinates","type":"string","internalType":"string"},{"name":"_postalCode","type":"string","internalType":"string"},{"name":"_maxMembership","type":"uint256","internalType":"uint256"},{"name":"_usdcAddress","type":"address","internalType":"address"}],"outputs":[],"stateMutability":"nonpayable"},{"type":"function","name":"investmentCount","inputs":[],"outputs":[{"name":"","type":"uint256","internalType":"uint256"}],"stateMutability":"view"},{"type":"function","name":"investmentTimeline","inputs":[{"name":"","type":"uint256","internalType":"uint256"},{"name":"","type":"uint256","internalType":"uint256"}],"outputs":[{"name":"eventType","type":"string","internalType":"string"},{"name":"timestamp","type":"uint256","internalType":"uint256"},{"name":"details","type":"string","internalType":"string"},{"name":"documentCID","type":"string","internalType":"string"},{"name":"actor","type":"address","internalType":"address"}],"stateMutability":"view"},{"type":"function","name":"investments","inputs":[{"name":"","type":"uint256","internalType":"uint256"}],"outputs":[{"name":"id","type":"uint256","internalType":"uint256"},{"name":"name","type":"string","internalType":"string"},{"name":"status","type":"uint8","internalType":"enum ILocalDAO.Status"},{"name":"category","type":"uint8","internalType":"enum ILocalDAO.Category"},{"name":"deadline","type":"uint256","internalType":"uint256"},{"name":"upvotes","type":"uint256","internalType":"uint256"},{"name":"downvotes","type":"uint256","internalType":"uint256"},{"name":"fundNeeded","type":"uint256","internalType":"uint256"},{"name":"expectedYield","type":"uint256","internalType":"uint256"},{"name":"grade","type":"uint8","internalType":"enum ILocalDAO.Grade"},{"name":"totalYieldGenerated","type":"uint256","internalType":"uint256"},{"name":"totalYieldDistributed","type":"uint256","internalType":"uint256"},{"name":"extensionCount","type":"uint256","internalType":"uint256"},{"name":"createdAt","type":"uint256","internalType":"uint256"},{"name":"createdBy","type":"address","internalType":"address"}],"stateMutability":"view"},{"type":"function","name":"isAdmin","inputs":[{"name":"","type":"address","internalType":"address"}],"outputs":[{"name":"","type":"bool","internalType":"bool"}],"stateMutability":"view"},{"type":"function","name":"isFinanceManager","inputs":[{"name":"","type":"address","internalType":"address"}],"outputs":[{"name":"","type":"bool","internalType":"bool"}],"stateMutability":"view"},{"type":"function","name":"isVerifiedMember","inputs":[{"name":"wallet","type":"address","internalType":"address"}],"outputs":[{"name":"","type":"bool","internalType":"bool"}],"stateMutability":"view"},{"type":"function","name":"location","inputs":[],"outputs":[{"name":"","type":"string","internalType":"string"}],"stateMutability":"view"},{"type":"function","name":"logoURI","inputs":[],"outputs":[{"name":"","type":"string","internalType":"string"}],"stateMutability":"view"},{"type":"function","name":"markInvestmentIncomplete","inputs":[{"name":"investmentId","type":"uint256","internalType":"uint256"}],"outputs":[],"stateMutability":"nonpayable"},{"type":"function","name":"maxMembership","inputs":[],"outputs":[{"name":"","type":"uint256","internalType":"uint256"}],"stateMutability":"view"},{"type":"function","name":"memberAddresses","inputs":[{"name":"","type":"uint256","internalType":"uint256"}],"outputs":[{"name":"","type":"address","internalType":"address"}],"stateMutability":"view"},{"type":"function","name":"memberCount","inputs":[],"outputs":[{"name":"","type":"uint256","internalType":"uint256"}],"stateMutability":"view"},{"type":"function","name":"members","inputs":[{"name":"","type":"address","internalType":"address"}],"outputs":[{"name":"wallet","type":"address","internalType":"address"},{"name":"kycVerified","type":"bool","internalType":"bool"},{"name":"kycProofHash","type":"bytes32","internalType":"bytes32"},{"name":"joinedAt","type":"uint256","internalType":"uint256"},{"name":"isActive","type":"bool","internalType":"bool"}],"stateMutability":"view"},{"type":"function","name":"name","inputs":[],"outputs":[{"name":"","type":"string","internalType":"string"}],"stateMutability":"view"},{"type":"function","name":"pause","inputs":[],"outputs":[],"stateMutability":"nonpayable"},{"type":"function","name":"paused","inputs":[],"outputs":[{"name":"","type":"bool","internalType":"bool"}],"stateMutability":"view"},{"type":"function","name":"postalCode","inputs":[],"outputs":[{"name":"","type":"string","internalType":"string"}],"stateMutability":"view"},{"type":"function","name":"proposeYieldDeposit","inputs":[{"name":"investmentId","type":"uint256","internalType":"uint256"},{"name":"yieldAmount","type":"uint256","internalType":"uint256"},{"name":"expenseReportCID","type":"string","internalType":"string"}],"outputs":[{"name":"","type":"uint256","internalType":"uint256"}],"stateMutability":"nonpayable"},{"type":"function","name":"releaseNextPhase","inputs":[{"name":"investmentId","type":"uint256","internalType":"uint256"},{"name":"recipient","type":"address","internalType":"address"}],"outputs":[],"stateMutability":"nonpayable"},{"type":"function","name":"releasePhaseCompleted","inputs":[{"name":"","type":"uint256","internalType":"uint256"}],"outputs":[{"name":"","type":"uint8","internalType":"uint8"}],"stateMutability":"view"},{"type":"function","name":"removeAdmin","inputs":[{"name":"admin","type":"address","internalType":"address"}],"outputs":[],"stateMutability":"nonpayable"},{"type":"function","name":"removeFinanceManager","inputs":[{"name":"manager","type":"address","internalType":"address"}],"outputs":[],"stateMutability":"nonpayable"},{"type":"function","name":"removeMember","inputs":[{"name":"wallet","type":"address","internalType":"address"}],"outputs":[],"stateMutability":"nonpayable"},{"type":"function","name":"sweepUnclaimedYield","inputs":[{"name":"investmentId","type":"uint256","internalType":"uint256"},{"name":"recipient","type":"address","internalType":"address"}],"outputs":[],"stateMutability":"nonpayable"},{"type":"function","name":"totalValueLocked","inputs":[],"outputs":[{"name":"","type":"uint256","internalType":"uint256"}],"stateMutability":"view"},{"type":"function","name":"unpause","inputs":[],"outputs":[],"stateMutability":"nonpayable"},{"type":"function","name":"updateDAOInfo","inputs":[{"name":"newDescription","type":"string","internalType":"string"},{"name":"newLogoURI","type":"string","internalType":"string"}],"outputs":[],"stateMutability":"nonpayable"},{"type":"function","name":"usdcAddress","inputs":[],"outputs":[{"name":"","type":"address","internalType":"address"}],"stateMutability":"view"},{"type":"function","name":"verifyMemberKYC","inputs":[{"name":"wallet","type":"address","internalType":"address"}],"outputs":[],"stateMutability":"nonpayable"},{"type":"function","name":"vote","inputs":[{"name":"investmentId","type":"uint256","internalType":"uint256"},{"name":"numberOfVotes","type":"uint256","internalType":"uint256"},{"name":"voteValue","type":"uint8","internalType":"uint8"}],"outputs":[],"stateMutability":"nonpayable"},{"type":"function","name":"votes","inputs":[{"name":"","type":"uint256","internalType":"uint256"},{"name":"","type":"address","internalType":"address"}],"outputs":[{"name":"voter","type":"address","internalType":"address"},{"name":"investmentId","type":"uint256","internalType":"uint256"},{"name":"numberOfVotes","type":"uint256","internalType":"uint256"},{"name":"voteValue","type":"uint8","internalType":"uint8"},{"name":"timestamp","type":"uint256","internalType":"uint256"},{"name":"hasClaimedYield","type":"bool","internalType":"bool"},{"name":"yieldClaimed","type":"uint256","internalType":"uint256"}],"stateMutability":"view"},{"type":"function","name":"withdrawStake","inputs":[{"name":"investmentId","type":"uint256","internalType":"uint256"}],"outputs":[],"stateMutability":"nonpayable"},{"type":"function","name":"yieldDistributions","inputs":[{"name":"","type":"uint256","internalType":"uint256"}],"outputs":[{"name":"investmentId","type":"uint256","internalType":"uint256"},{"name":"totalAmount","type":"uint256","internalType":"uint256"},{"name":"distributedAmount","type":"uint256","internalType":"uint256"},{"name":"remainingAmount","type":"uint256","internalType":"uint256"},{"name":"expenseReportCID","type":"string","internalType":"string"},{"name":"timestamp","type":"uint256","internalType":"uint256"}],"stateMutability":"view"},{"type":"function","name":"yieldProposalApprovals","inputs":[{"name":"","type":"uint256","internalType":"uint256"},{"name":"","type":"address","internalType":"address"}],"outputs":[{"name":"","type":"bool","internalType":"bool"}],"stateMutability":"view"},{"type":"function","name":"yieldProposalCount","inputs":[],"outputs":[{"name":"","type":"uint256","internalType":"uint256"}],"stateMutability":"view"},{"type":"function","name":"yieldProposals","inputs":[{"name":"","type":"uint256","internalType":"uint256"}],"outputs":[{"name":"id","type":"uint256","internalType":"uint256"},{"name":"investmentId","type":"uint256","internalType":"uint256"},{"name":"amount","type":"uint256","internalType":"uint256"},{"name":"expenseReportCID","type":"string","internalType":"string"},{"name":"proposer","type":"address","internalType":"address"},{"name":"approvals","type":"uint256","internalType":"uint256"},{"name":"executed","type":"bool","internalType":"bool"},{"name":"createdAt","type":"uint256","internalType":"uint256"}],"stateMutability":"view"},{"type":"event","name":"ActivityLogged","inputs":[{"name":"investmentId","type":"uint256","indexed":true,"internalType":"uint256"},{"name":"eventType","type":"string","indexed":false,"internalType":"string"},{"name":"details","type":"string","indexed":false,"internalType":"string"},{"name":"timestamp","type":"uint256","indexed":false,"internalType":"uint256"}],"anonymous":false},{"type":"event","name":"AdminAdded","inputs":[{"name":"admin","type":"address","indexed":true,"internalType":"address"}],"anonymous":false},{"type":"event","name":"AdminRemoved","inputs":[{"name":"admin","type":"address","indexed":true,"internalType":"address"}],"anonymous":false},{"type":"event","name":"DAOPaused","inputs":[{"name":"timestamp","type":"uint256","indexed":false,"internalType":"uint256"}],"anonymous":false},{"type":"event","name":"DAOUnpaused","inputs":[{"name":"timestamp","type":"uint256","indexed":false,"internalType":"uint256"}],"anonymous":false},{"type":"event","name":"DeadlineExtended","inputs":[{"name":"investmentId","type":"uint256","indexed":true,"internalType":"uint256"},{"name":"newDeadline","type":"uint256","indexed":false,"internalType":"uint256"},{"name":"extensionCount","type":"uint256","indexed":false,"internalType":"uint256"}],"anonymous":false},{"type":"event","name":"FinanceManagerAdded","inputs":[{"name":"manager","type":"address","indexed":true,"internalType":"address"}],"anonymous":false},{"type":"event","name":"FinanceManagerRemoved","inputs":[{"name":"manager","type":"address","indexed":true,"internalType":"address"}],"anonymous":false},{"type":"event","name":"FundsLocked","inputs":[{"name":"investmentId","type":"uint256","indexed":true,"internalType":"uint256"},{"name":"amount","type":"uint256","indexed":false,"internalType":"uint256"}],"anonymous":false},{"type":"event","name":"FundsReleased","inputs":[{"name":"investmentId","type":"uint256","indexed":true,"internalType":"uint256"},{"name":"phase","type":"uint8","indexed":false,"internalType":"uint8"},{"name":"amount","type":"uint256","indexed":false,"internalType":"uint256"},{"name":"recipient","type":"address","indexed":true,"internalType":"address"}],"anonymous":false},{"type":"event","name":"Initialized","inputs":[{"name":"version","type":"uint64","indexed":false,"internalType":"uint64"}],"anonymous":false},{"type":"event","name":"InvestmentActivated","inputs":[{"name":"investmentId","type":"uint256","indexed":true,"internalType":"uint256"},{"name":"timestamp","type":"uint256","indexed":false,"internalType":"uint256"}],"anonymous":false},{"type":"event","name":"InvestmentClosed","inputs":[{"name":"investmentId","type":"uint256","indexed":true,"internalType":"uint256"},{"name":"timestamp","type":"uint256","indexed":false,"internalType":"uint256"}],"anonymous":false},{"type":"event","name":"InvestmentCreated","inputs":[{"name":"investmentId","type":"uint256","indexed":true,"internalType":"uint256"},{"name":"name","type":"string","indexed":false,"internalType":"string"},{"name":"fundNeeded","type":"uint256","indexed":false,"internalType":"uint256"},{"name":"grade","type":"uint8","indexed":false,"internalType":"enum ILocalDAO.Grade"},{"name":"deadline","type":"uint256","indexed":false,"internalType":"uint256"}],"anonymous":false},{"type":"event","name":"InvestmentIncomplete","inputs":[{"name":"investmentId","type":"uint256","indexed":true,"internalType":"uint256"},{"name":"timestamp","type":"uint256","indexed":false,"internalType":"uint256"}],"anonymous":false},{"type":"event","name":"MemberAdded","inputs":[{"name":"member","type":"address","indexed":true,"internalType":"address"},{"name":"timestamp","type":"uint256","indexed":false,"internalType":"uint256"}],"anonymous":false},{"type":"event","name":"MemberExited","inputs":[{"name":"member","type":"address","indexed":true,"internalType":"address"},{"name":"timestamp","type":"uint256","indexed":false,"internalType":"uint256"}],"anonymous":false},{"type":"event","name":"MemberKYCVerified","inputs":[{"name":"member","type":"address","indexed":true,"internalType":"address"},{"name":"timestamp","type":"uint256","indexed":false,"internalType":"uint256"}],"anonymous":false},{"type":"event","name":"MemberRemoved","inputs":[{"name":"member","type":"address","indexed":true,"internalType":"address"},{"name":"timestamp","type":"uint256","indexed":false,"internalType":"uint256"}],"anonymous":false},{"type":"event","name":"Paused","inputs":[{"name":"account","type":"address","indexed":false,"internalType":"address"}],"anonymous":false},{"type":"event","name":"StakeWithdrawn","inputs":[{"name":"investmentId","type":"uint256","indexed":true,"internalType":"uint256"},{"name":"voter","type":"address","indexed":true,"internalType":"address"},{"name":"amount","type":"uint256","indexed":false,"internalType":"uint256"}],"anonymous":false},{"type":"event","name":"UnclaimedYieldRecovered","inputs":[{"name":"investmentId","type":"uint256","indexed":true,"internalType":"uint256"},{"name":"recipient","type":"address","indexed":true,"internalType":"address"},{"name":"amount","type":"uint256","indexed":false,"internalType":"uint256"},{"name":"timestamp","type":"uint256","indexed":false,"internalType":"uint256"}],"anonymous":false},{"type":"event","name":"Unpaused","inputs":[{"name":"account","type":"address","indexed":false,"internalType":"address"}],"anonymous":false},{"type":"event","name":"VoteCast","inputs":[{"name":"investmentId","type":"uint256","indexed":true,"internalType":"uint256"},{"name":"voter","type":"address","indexed":true,"internalType":"address"},{"name":"numberOfVotes","type":"uint256","indexed":false,"internalType":"uint256"},{"name":"voteValue","type":"uint8","indexed":false,"internalType":"uint8"},{"name":"timestamp","type":"uint256","indexed":false,"internalType":"uint256"}],"anonymous":false},{"type":"event","name":"YieldClaimed","inputs":[{"name":"investmentId","type":"uint256","indexed":true,"internalType":"uint256"},{"name":"voter","type":"address","indexed":true,"internalType":"address"},{"name":"amount","type":"uint256","indexed":false,"internalType":"uint256"},{"name":"timestamp","type":"uint256","indexed":false,"internalType":"uint256"}],"anonymous":false},{"type":"event","name":"YieldDepositApproved","inputs":[{"name":"proposalId","type":"uint256","indexed":true,"internalType":"uint256"},{"name":"admin","type":"address","indexed":true,"internalType":"address"},{"name":"approvals","type":"uint256","indexed":false,"internalType":"uint256"}],"anonymous":false},{"type":"event","name":"YieldDepositExecuted","inputs":[{"name":"proposalId","type":"uint256","indexed":true,"internalType":"uint256"},{"name":"investmentId","type":"uint256","indexed":true,"internalType":"uint256"},{"name":"amount","type":"uint256","indexed":false,"internalType":"uint256"},{"name":"expenseReportCID","type":"string","indexed":false,"internalType":"string"},{"name":"timestamp","type":"uint256","indexed":false,"internalType":"uint256"}],"anonymous":false},{"type":"event","name":"YieldDepositProposed","inputs":[{"name":"proposalId","type":"uint256","indexed":true,"internalType":"uint256"},{"name":"investmentId","type":"uint256","indexed":true,"internalType":"uint256"},{"name":"amount","type":"uint256","indexed":false,"internalType":"uint256"},{"name":"proposer","type":"address","indexed":false,"internalType":"address"},{"name":"timestamp","type":"uint256","indexed":false,"internalType":"uint256"}],"anonymous":false},{"type":"event","name":"YieldDeposited","inputs":[{"name":"investmentId","type":"uint256","indexed":true,"internalType":"uint256"},{"name":"amount","type":"uint256","indexed":false,"internalType":"uint256"},{"name":"expenseReportCID","type":"string","indexed":false,"internalType":"string"},{"name":"timestamp","type":"uint256","indexed":false,"internalType":"uint256"}],"anonymous":false},{"type":"error","name":"AllPhasesReleased","inputs":[]},{"type":"error","name":"AlreadyAdmin","inputs":[]},{"type":"error","name":"AlreadyApproved","inputs":[]},{"type":"error","name":"AlreadyExecuted","inputs":[]},{"type":"error","name":"AlreadyFinanceManager","inputs":[]},{"type":"error","name":"AlreadyMember","inputs":[]},{"type":"error","name":"AlreadyVoted","inputs":[]},{"type":"error","name":"CannotChangeDownToUp","inputs":[]},{"type":"error","name":"CannotClose","inputs":[]},{"type":"error","name":"CannotExtend","inputs":[]},{"type":"error","name":"DeadlinePassed","inputs":[]},{"type":"error","name":"DownvoteNoStake","inputs":[]},{"type":"error","name":"EmptyDescription","inputs":[]},{"type":"error","name":"EmptyName","inputs":[]},{"type":"error","name":"EnforcedPause","inputs":[]},{"type":"error","name":"ExceedsStake","inputs":[]},{"type":"error","name":"ExpectedPause","inputs":[]},{"type":"error","name":"GracePeriodActive","inputs":[]},{"type":"error","name":"InsufficientAllowance","inputs":[]},{"type":"error","name":"InsufficientBalance","inputs":[]},{"type":"error","name":"InsufficientProposerAllowance","inputs":[]},{"type":"error","name":"InsufficientProposerBalance","inputs":[]},{"type":"error","name":"InvalidExtensionDays","inputs":[]},{"type":"error","name":"InvalidInitialization","inputs":[]},{"type":"error","name":"InvalidInvestment","inputs":[]},{"type":"error","name":"InvalidParams","inputs":[]},{"type":"error","name":"InvalidProposal","inputs":[]},{"type":"error","name":"InvalidVoteValue","inputs":[]},{"type":"error","name":"InvestmentNotActive","inputs":[]},{"type":"error","name":"KYCAlreadyVerified","inputs":[]},{"type":"error","name":"KYCNotVerified","inputs":[]},{"type":"error","name":"MembershipFull","inputs":[]},{"type":"error","name":"NoActiveInvestments","inputs":[]},{"type":"error","name":"NoEscrowedFunds","inputs":[]},{"type":"error","name":"NoStake","inputs":[]},{"type":"error","name":"NoStakeToWithdraw","inputs":[]},{"type":"error","name":"NoUnclaimedYield","inputs":[]},{"type":"error","name":"NoYieldAvailable","inputs":[]},{"type":"error","name":"NotAFinanceManager","inputs":[]},{"type":"error","name":"NotActiveMember","inputs":[]},{"type":"error","name":"NotAnAdmin","inputs":[]},{"type":"error","name":"NotCreator","inputs":[]},{"type":"error","name":"NotEnded","inputs":[]},{"type":"error","name":"NotEnoughAdmins","inputs":[]},{"type":"error","name":"NotEnoughApprovals","inputs":[]},{"type":"error","name":"NotIncomplete","inputs":[]},{"type":"error","name":"NotInitializing","inputs":[]},{"type":"error","name":"NotMember","inputs":[]},{"type":"error","name":"NotPending","inputs":[]},{"type":"error","name":"OnlyUpvoters","inputs":[]},{"type":"error","name":"ReentrancyGuardReentrantCall","inputs":[]},{"type":"error","name":"SafeERC20FailedOperation","inputs":[{"name":"token","type":"address","internalType":"address"}]},{"type":"error","name":"Unauthorized","inputs":[]},{"type":"error","name":"UpvoteRequiresStake","inputs":[]},{"type":"error","name":"YieldAlreadyClaimed","inputs":[]},{"type":"error","name":"YieldExceedsTotal","inputs":[]},{"type":"error","name":"ZeroAddress","inputs":[]},{"type":"error","name":"ZeroAmount","inputs":[]}],"bytecode":{"object":"0x6080806040523460ae57600180555f5160206159e95f395f51905f525460ff8160401c16609f576002600160401b03196001600160401b03821601604d575b60405161593690816100b38239f35b6001600160401b0319166001600160401b039081175f5160206159e95f395f51905f525581527fc7f505b2f371ae2175ee4913f4499e1f2633a7b5936321eed1cdaeb6115181d290602090a15f80603e565b63f92ee8a960e01b5f5260045ffd5b5f80fdfe60806040526004361015610011575f80fd5b5f3560e01c8063023dc32114614a4457806302d05d3f14614a1c57806302d45457146149f457806306fdde031461496257806308ae4b0c146148ef5780630b1ca49a1461482b5780630ce52701146148015780630e8bd7821461467b5780630f55e9f21461465157806311aee3801461463457806314bfd6d0146145f25780631785f53c146144ad57806322ae634f1461419f578063246b0e5c1461418257806324d7806c1461414557806325d5971f146140465780632a80065914613ef75780632d1fdef614613c5c578063359cd45e14613c1b5780633f4ba83a14613b8357806340bd2e231461393457806348dccf711461391957806349df7208146137775780634c35833d1461375a57806350af8e34146136ad578063516f279e1461361b57806353dac9301461358157806353f0ab1414613564578063544c97bf146134c657806359014773146134895780635c975abb146134685780636028a4ef146132235780636833bb771461318c5780636bb38b28146131915780636e8c4c921461318c5780636f6a169d1461316f57806370480275146130895780637284e41614612ff75780637485997f14612e3a578063760121c914612ca857806378587a0a146129bf5780637967c623146128c35780637c0f6b35146128185780638172dcba146127cf5780638456cb591461274457806387dbdfcb146126a25780638a241f4c1461254f5780638a7174d7146123ba57806399c92a551461239d5780639f97281414611ccc578063a4b889b714611c27578063a8dfd7fe14611b58578063ab87787914611b37578063af38c76514611b0a578063bbb2eab91461169e578063bc3f931f14611596578063c07780f6146114f3578063c11baa5e14611513578063ca749c99146114f8578063ca90b905146114f3578063cb261a0314611491578063cc2cbf721461121f578063cc4e6299146111a7578063d1b22b9d14610e0c578063d23254b414610d77578063d6cf209614610c86578063d9d8661014610b69578063e3ad2834146104d3578063ec18154e146104b6578063fd345c8a146103a35763ff78c38a14610326575f80fd5b3461039f57602036600319011261039f576004355f52601460205260405f2080546001820154916103956002820154916003810154600561036960048401614be9565b92015493604051968796875260208701526040860152606085015260c0608085015260c0840190614c89565b9060a08301520390f35b5f80fd5b3461039f57602036600319011261039f576004355f52601060205260405f20805490600181016103d290614be9565b90600281015460ff81169160038101546004820154600583015460068401546007850154600886015460ff1691600a87015493600b88015495600c89015497600d8a015499600160a01b6001900390600e0154169a6040519e8f9e8f918252602082016101e090526101e0820161044891614c89565b9d61045281614d06565b60408201526060019060081c60ff169061046b91614d10565b60808d015260a08c015260c08b015260e08a015261010089015261048e81614d06565b6101208801526101408701526101608601526101808501526101a08401526101c08301520390f35b3461039f575f36600319011261039f576020601a54604051908152f35b3461039f5760e036600319011261039f576004356001600160401b03811161039f57610503903690600401614d38565b602435600781101561039f57604435906064359160843591600483101561039f5760a4359360c4356001600160401b03811161039f573660238201121561039f57806004013561055281614de9565b916105606040519384614bc6565b8183526024602084019260051b8201019036821161039f5760248101925b828410610b3a5750505050335f52600b60205260ff60405f2054161580610b25575b610b17576105ac615381565b6105b7868386615778565b15610b0857865115610af9576105ce601154614e25565b958660115562015180810290808204620151801490151715610ae5576105f49042614ee2565b916040519261060284614b74565b87845261061f60208501958a87525f604087015260608601614e19565b60808401525f60a08401525f60c08401528460e084015261010083015261064585614d06565b846101208301526101408201525f6101608201525f6101808201525f6101a0820152426101c0820152336101e0820152845f52601060205260405f2091815183555180519060018060401b0382116109c7576106b1826106a86001870154614b21565b60018701614f57565b602090601f8311600114610a78576106d392915f9183610a6d575b5050614f9b565b60018301555b6002820160408201516106eb81614d06565b6106f481614d06565b60ff8019835416911617815560608201516007811015610a595761ff0082549160081b169061ff0019161790556080810151600383015560a0810151600483015560c0810151600583015560e0810151600683015561010081015160078301556008820161012082015161076781614d06565b61077081614d06565b60ff8019835416911617905560098201610140820151805190600160401b82116109c75782548284558083106109db575b50602001915f5260205f20915f905b8282106108f45760208989817fde296089731ff8a2c697646172d986c015cf0fc46770a6577661fc20a8f232d46108d48f8d8d600e8e610160810151600a840155610180810151600b8401556101a0810151600c8401556101c0810151600d8401556101e060018060a01b039101511691019060018060a01b031660018060a01b03198254161790556040956108b2875161084b8982614bc6565b60128152711a5b9d995cdd1b595b9d17d8dc99585d195960721b8b82015288516108758a82614bc6565b601b81527a125b9d995cdd1b595b9d081c1c9bdc1bdcd85b0818dc99585d1959602a1b8c8201528951916108a98d84614bc6565b5f8352896153fb565b855f52601089526003875f200154908751948594608086526080860190614c89565b928a8501526108e281614d06565b8784015260608301520390a251908152f35b80518051906001600160401b0382116109c75761091b826109158854614b21565b88614f57565b602090601f831160011461095e5792610944836001959460209487965f92610953575050614f9b565b87555b019401910190926107b0565b015190505f806106cc565b90601f19831691875f52815f20925f5b8181106109af5750936020936001969387969383889510610997575b505050811b018755610947565b01515f1960f88460031b161c191690558f808061098a565b9293602060018192878601518155019501930161096e565b634e487b7160e01b5f52604160045260245ffd5b835f52828060205f20019103905f5b8281106109f85750506107a1565b806001918301610a088154614b21565b9081610a17575b5050016109ea565b81601f5f93118514610a2d5750555b8d80610a0f565b81835260208320610a4991601f0160051c841901908601614eef565b8082528160208120915555610a26565b634e487b7160e01b5f52602160045260245ffd5b0151905089806106cc565b9190600185015f52805f20905f935b601f1984168510610aca576001945083601f19811610610ab2575b505050811b0160018301556106d9565b01515f1960f88460031b161c19169055888080610aa2565b81810151835560209485019460019093019290910190610a87565b634e487b7160e01b5f52601160045260245ffd5b632ef1310560e01b5f5260045ffd5b635435b28960e11b5f5260045ffd5b6282b42960e81b5f5260045ffd5b506009546001600160a01b03163314156105a0565b83356001600160401b03811161039f57602091610b5e839260243691870101614d38565b81520193019261057e565b3461039f57602036600319011261039f57600435335f52600b60205260ff60405f2054161580610c71575b610b1757610ba0615381565b805f52601660205260405f20805415610c625760ff600682015416610c53575f82815260176020908152604080832033845290915290205460ff16610c44575f8281526017602090815260408083203384529091529020805460ff191660011790556005018054909190610c1390614e25565b8092556040519182527f90e65a5a1f0f2881cb733e6db6d511d2de274c963edb72732ba3cf19e584458160203393a3005b63080fc0bd60e11b5f5260045ffd5b630dc1019760e01b5f5260045ffd5b631dc0650160e31b5f5260045ffd5b506009546001600160a01b0316331415610b94565b3461039f57602036600319011261039f57610c9f614cad565b335f52600b60205260ff60405f2054161580610d62575b610b1757610cc2615381565b6001600160a01b03165f818152600d602052604090206003015460ff1615610d5357805f52600d60205260ff60405f205460a01c16610d4457805f52600d60205260405f20600160a01b60ff60a01b198254161790557f2f96efecc5f066a5f72d6499d0f37ef0efbb94ebc5ba9deae36e7d14aad124606020604051428152a2005b633496f4c760e01b5f5260045ffd5b63148fe22160e11b5f5260045ffd5b506009546001600160a01b0316331415610cb6565b3461039f57604036600319011261039f57610d90614cc3565b6004355f52601360205260405f209060018060a01b03165f5260205260e060405f2060018060a01b0381541690600181015490600281015460ff600383015416600483015491600660ff600586015416940154946040519687526020870152604086015260608501526080840152151560a083015260c0820152f35b3461039f57602036600319011261039f57600435610e2861539b565b610e30615381565b805f52601660205260405f20805415610c6257600681019160ff835416610c5357600360058301541061119857600182019182545f52601060205260405f2093600160ff600287015416610e8381614d06565b610e8c81614d06565b610e9581614d06565b03611189576019546004838101546040516370a0823160e01b81526001600160a01b03918216928101839052921696916020816024818b5afa9081156110f9575f91611157575b506002850197885480921061114857604051636eb1769f60e11b815260208180610f0a3088600484016151fb565b0381855afa80156110f95783915f91611113575b501061110457610f2f923091615734565b610f40600a87549201918254614ee2565b90556003845492835f52601460205260405f209384558654610f6760018601918254614ee2565b90558654610f79838601918254614ee2565b90550191610f8a8360048301615215565b600542910155600160ff198254161790558254928454936040519463e939567960e01b865260048601525f8560248173__$ffd0c94c66d959deda02fa34153d397f8c$__5af49081156110f957602061104b6031611084947f417ed8551af6d1cdb7b47da8bdd5fc25afa202e4d276967d7bcd77d39bdbfe58995f916110d7575b506040519384917002cb4b2b632103232b837b9b4ba32b21d1607d1b828401528051918291018484015e81015f838201520301601f198101835282614bc6565b604051611059604082614bc6565b600f81526e1e5a595b1917d9195c1bdcda5d1959608a1b602082015261107e86614be9565b926153fb565b54809454927f28d8e6772734d37b95a27185e9531f69bbb096eb4c74b5897260e60a45ef9a4e604051806110ba428789846152e7565b0390a36110ce6040519283924291846152e7565b0390a260018055005b6110f391503d805f833e6110eb8183614bc6565b810190614e33565b8b61100b565b6040513d5f823e3d90fd5b63fad863f560e01b5f5260045ffd5b9150506020813d602011611140575b8161112f60209383614bc6565b8101031261039f578290518b610f1e565b3d9150611122565b636f9f839560e11b5f5260045ffd5b90506020813d602011611181575b8161117260209383614bc6565b8101031261039f575188610edc565b3d9150611165565b63030184d760e31b5f5260045ffd5b63125e6df560e11b5f5260045ffd5b3461039f57602036600319011261039f57600435600e5481101561039f57600e5481101561120b57600e5f527fbb7b4a454dc3493923482f07822329ed19e8244eff582cc204f8554c3620c3fd01546040516001600160a01b039091168152602090f35b634e487b7160e01b5f52603260045260245ffd5b3461039f57604036600319011261039f5760043561123b614cc3565b90335f52600b60205260ff60405f205416158061147c575b610b175780158015611471575b6114625761126c61539b565b611274615381565b805f526010602052600260ff8160405f2001541661129181614d06565b03611453576001600160a01b03821691821561144457815f52601460205260405f20600381019081549283156114355760058201546276a7008101809111610ae557421061142657600284925f6113029555016112ef838254614ee2565b90556019546001600160a01b03166153bb565b60405163e939567960e01b8152600481018290525f8160248173__$ffd0c94c66d959deda02fa34153d397f8c$__5af49182156110f9576113b4603b7f5388434f350d6a06a298af73c74c2a01c5b800b21268dfb84b426910dfdb112f946020945f9161140c575b506040519485917a02ab731b630b4b6b2b2103cb4b2b632103932b1b7bb32b932b21d1602d1b828401528051918291018484015e81015f838201520301601f198101845283614bc6565b6113fa6040928351906113c78583614bc6565b600f82526e1e5a595b1917dc9958dbdd995c9959608a1b60208301528451916113f1602084614bc6565b5f8352876153fb565b8151908152426020820152a360018055005b61142091503d805f833e6110eb8183614bc6565b8861136a565b63478f84e760e01b5f5260045ffd5b63fd67680960e01b5f5260045ffd5b63d92e233d60e01b5f5260045ffd5b631a6031a360e31b5f5260045ffd5b63136ba46b60e11b5f5260045ffd5b506011548111611260565b506009546001600160a01b0316331415611253565b3461039f57602036600319011261039f576001600160a01b036114b2614cad565b16805f52600d60205260ff600360405f20015416806114d9575b6020906040519015158152f35b505f52600d602052602060ff60405f205460a01c166114cc565b614dce565b3461039f575f36600319011261039f57602060405160058152f35b3461039f575f36600319011261039f5761152b615381565b335f52600d60205260ff600360405f2001541615610d5357335f52600d602052600360405f200160ff198154169055611565600f54614e00565b600f556040514281527fe0c638b9625a325005e6284e1bc01fa3455c7bec5ae11bcf9de99160980ae91060203392a2005b3461039f57604036600319011261039f576115af614cc3565b5f60c06040516115be81614bab565b8281528260208201528260408201528260608201528260808201528260a082015201526004355f52601360205260405f209060018060a01b03165f5260205260e060405f2060405161160f81614bab565b60018060a01b038254169182825260018101546020830190815260ff6002830154604085019081528160038501541690606086019182526004850154936080870194855260c06006856005890154169760a08a019815158952015497019687526040519788525160208801525160408701525116606085015251608084015251151560a08301525160c0820152f35b3461039f57606036600319011261039f576004356024359060443560ff811680910361039f57335f52600d60205260ff600360405f2001541615611afb57335f52600d60205260ff60405f205460a01c1615611aec5781158015611ae1575b6114625761170961539b565b611711615381565b815f52601060205260405f2060ff60028201541661172e81614d06565b611ad25760038101544211611ac35760018211611ab4575f83815260136020908152604080832033845290915290209060018303611a2f578415611a20576019546040516370a0823160e01b81523360048201526001600160a01b039091169290602081602481875afa80156110f95787915f916119eb575b50106119dc57604051636eb1769f60e11b8152602081806117cc3033600484016151fb565b0381875afa80156110f95787915f916119a7575b501061199857600281018054151580611986575b611977576118088760049530903390615734565b81546001600160a01b0319163317825560018201869055805461182c908890614ee2565b905560038101600160ff1982541617905582429101550161184e848254614ee2565b905561185c83601a54614ee2565b601a555b604051635e57966d60e01b8152336004820152905f8260248173__$ffd0c94c66d959deda02fa34153d397f8c$__5af480156110f957602d6118e2916020945f9161195d575b506040519485916c02b37ba329031b0b9ba10313c9609d1b828401528051918291018484015e81015f838201520301601f198101845283614bc6565b6119226040928351906118f58583614bc6565b60098252681d9bdd1957d8d85cdd60ba1b6020830152845191611919602084614bc6565b5f8352866153fb565b8151938452602084015242908301527f8f74d45a8df9a2c9af102275bbb4540ccb175cff870770d345e5fb199d8cacfa60603393a360018055005b61197191503d805f833e6110eb8183614bc6565b876118a6565b6370973d2560e11b5f5260045ffd5b50600160ff60038401541614156117f4565b6313be252b60e01b5f5260045ffd5b9150506020813d6020116119d4575b816119c360209383614bc6565b8101031261039f57869051886117e0565b3d91506119b6565b631e9acf1760e31b5f5260045ffd5b9150506020813d602011611a18575b81611a0760209383614bc6565b8101031261039f57869051886117a7565b3d91506119fa565b636eb4fb7f60e11b5f5260045ffd5b60028201918254611aa55785611a965760065f918260059560018060a01b03331660018060a01b0319845416178355886001840155556003810160ff19815416905542600482015584810160ff198154169055015501611a8f8154614e25565b9055611860565b63035ed45160e51b5f5260045ffd5b637c9a1cf960e01b5f5260045ffd5b63eee3496160e01b5f5260045ffd5b63387b2e5560e11b5f5260045ffd5b633ee3282d60e11b5f5260045ffd5b5060115482116116fd565b63174a0ba560e31b5f5260045ffd5b631687e47360e31b5f5260045ffd5b3461039f57602036600319011261039f576004355f52601d602052602060ff60405f205416604051908152f35b3461039f576020611b50611b4a36614d7e565b91614fad565b604051908152f35b3461039f575f36600319011261039f576040515f600654611b7881614b21565b8084529060018116908115611c035750600114611bb8575b611bb483611ba081850382614bc6565b604051918291602083526020830190614c89565b0390f35b60065f9081525f5160206158815f395f51905f52939250905b808210611be957509091508101602001611ba0611b90565b919260018160209254838588010152019101909291611bd1565b60ff191660208086019190915291151560051b84019091019150611ba09050611b90565b3461039f575f36600319011261039f576040515f600554611c4781614b21565b8084529060018116908115611c035750600114611c6e57611bb483611ba081850382614bc6565b60055f9081527f036b6384b5eca791c62761152d0c79bb0604c104a5fb6f4eb0703f3154bb3db0939250905b808210611cb257509091508101602001611ba0611b90565b919260018160209254838588010152019101909291611c9a565b3461039f5761010036600319011261039f57611ce6614cad565b6024356001600160401b03811161039f57611d05903690600401614d38565b906044356001600160401b03811161039f57611d25903690600401614d38565b906064356001600160401b03811161039f57611d45903690600401614d38565b926084356001600160401b03811161039f57611d65903690600401614d38565b9360a4356001600160401b03811161039f57611d85903690600401614d38565b9360e4356001600160a01b038116939084900361039f575f5160206158c15f395f51905f5254604081901c60ff161595906001600160401b03811680159081612395575b600114908161238b575b159081612382575b50612373576001600160401b031981166001175f5160206158c15f395f51905f52558661234b575b506001600160a01b0316801561144457841561144457600980546001600160a01b0319169190911790558051906001600160401b0382116109c757611e49600254614b21565b601f8111612306575b50602090601f83116001146122a157611e7492915f9183610a6d575050614f9b565b6002555b8051906001600160401b0382116109c757611e9d82611e98600354614b21565b614f0a565b602090601f831160011461223c57611ebe92915f9183612231575050614f9b565b6003555b8051906001600160401b0382116109c757611ede600454614b21565b601f81116121ec575b50602090601f831160011461218757611f0992915f918361217c575050614f9b565b6004555b83516001600160401b0381116109c757611f28600554614b21565b601f8111612141575b50602094601f82116001146120de57611f569293949582915f926120d3575050614f9b565b6005555b82516001600160401b0381116109c757611f75600654614b21565b601f8111612085575b506020601f8211600114612022578190611fa19394955f92612017575050614f9b565b6006555b60c435600855601980546001600160a01b031916919091179055611fc557005b60ff60401b195f5160206158c15f395f51905f5254165f5160206158c15f395f51905f52557fc7f505b2f371ae2175ee4913f4499e1f2633a7b5936321eed1cdaeb6115181d2602060405160018152a1005b0151905085806106cc565b601f1982169060065f52805f20915f5b81811061206d57509583600195969710612055575b505050811b01600655611fa5565b01515f1960f88460031b161c19169055848080612047565b9192602060018192868b015181550194019201612032565b81811115611f7e5760065f526120c5905f5160206158815f395f51905f5290601f840160051c90602085106120cb575b601f82910160051c039101614eef565b84611f7e565b5f91506120b5565b0151905086806106cc565b601f1982169560055f52805f20915f5b88811061212957508360019596979810612111575b505050811b01600555611f5a565b01515f1960f88460031b161c19169055858080612103565b919260206001819286850151815501940192016120ee565b81811115611f31576121769060055f5260205f2090601f840160051c90602085106120cb57601f82910160051c039101614eef565b85611f31565b0151905087806106cc565b90601f1983169160045f52815f20925f5b8181106121d457509084600195949392106121bc575b505050811b01600455611f0d565b01515f1960f88460031b161c191690558680806121ae565b92936020600181928786015181550195019301612198565b82811115611ee75760045f5261222b905f5160206158a15f395f51905f5290601f850160051c90602086106120cb57601f82910160051c039101614eef565b86611ee7565b0151905088806106cc565b90601f1983169160035f52815f20925f5b8181106122895750908460019594939210612271575b505050811b01600355611ec2565b01515f1960f88460031b161c19169055878080612263565b9293602060018192878601518155019501930161224d565b90601f1983169160025f52815f20925f5b8181106122ee57509084600195949392106122d6575b505050811b01600255611e78565b01515f1960f88460031b161c191690558880806122c8565b929360206001819287860151815501950193016122b2565b82811115611e525760025f52612345905f5160206158015f395f51905f5290601f850160051c90602086106120cb57601f82910160051c039101614eef565b88611e52565b6001600160481b0319166001600160401b01175f5160206158c15f395f51905f525588611e03565b63f92ee8a960e01b5f5260045ffd5b9050158a611ddb565b303b159150611dd3565b889150611dc9565b3461039f575f36600319011261039f5760206040516276a7008152f35b3461039f57602036600319011261039f5760043580158015612544575b611462575f52601060205260405f206040516123f281614b74565b8154815261240260018301614be9565b602082015261242f60ff600284015481811661241d81614d06565b604085015260081c1660608301614e19565b600382015460808201908152600483015460a08301908152600584015460c084015260068401549260e08101938452600785015461010082015260ff60088601541661247a81614d06565b61012082015260098501805461248f81614de9565b9161249d6040519384614bc6565b81835260208301905f5260205f205f915b83831061252757505050506020956101e091610140840152600a810154610160840152600b810154610180840152600c8101546101a0840152600d8101546101c0840152600e60018060a01b03910154169101525191519051911015908161251c575b506040519015158152f35b905042111582612511565b60016020819261253685614be9565b8152019201920191906124ae565b5060115481116123d7565b3461039f57602036600319011261039f576004355f52601060205260405f2060405161257a81614b74565b8154815261258a60018301614be9565b60208201526125a560ff600284015481811661241d81614d06565b60038201546080820152600482015460a0820190815260058301549160c08101928352600684015460e0820152600784015461010082015260ff6008850154166125ee81614d06565b61012082015260098401805461260381614de9565b916126116040519384614bc6565b81835260208301905f5260205f205f915b83831061268557505050506040946101e091610140840152600a810154610160840152600b810154610180840152600c8101546101a0840152600d8101546101c0840152600e60018060a01b039101541691015251905182519182526020820152f35b60016020819261269485614be9565b815201920192019190612622565b3461039f57602036600319011261039f576126bb614cad565b6009546001600160a01b03163303612735576001600160a01b03165f818152600c602052604090205460ff161561272657805f52600c60205260405f2060ff1981541690557f76bb6d79491c6da68a221b5e68656913a98c57c76079f10d0a47b1fb7e847fcc5f80a2005b63943ebde360e01b5f5260045ffd5b6393687c0b60e01b5f5260045ffd5b3461039f575f36600319011261039f576009546001600160a01b031633036127355761276e615381565b600160ff195f5416175f557f62e78cea01bee320cd4e420270b5ea74000d11b0c9f74754ebdbfc544b05a2586020604051338152a17f6da89e41e37601c1c3b56c6d0c90cd90d1bbb5b7eb44e4d80641e91121ee58be6020604051428152a1005b3461039f57604036600319011261039f576127e8614cc3565b6004355f52601760205260405f209060018060a01b03165f52602052602060ff60405f2054166040519015158152f35b3461039f575f36600319011261039f57604051806020600e5492838152018092600e5f5260205f20905f5b8181106128a45750505081612859910382614bc6565b604051918291602083019060208452518091526040830191905f5b818110612882575050500390f35b82516001600160a01b0316845285945060209384019390920191600101612874565b82546001600160a01b0316845260209093019260019283019201612843565b3461039f57602036600319011261039f576004355f60a06040516128e681614b90565b828152826020820152826040820152826060820152606060808201520152801580156129b4575b611462575f52601460205260405f2060405161292881614b90565b81548152600182015491602082019283526129a960028201549160408401928352600381015460608501908152600561296360048401614be9565b926080870193845201549360a08601948552604051968796602088525160208801525160408701525160608601525160808501525160c060a085015260e0840190614c89565b905160c08301520390f35b50601154811161290d565b3461039f57604036600319011261039f576004356129db614cc3565b90335f52600b60205260ff60405f2054161580612c93575b610b175780158015612c88575b61146257612a0c61539b565b612a14615381565b805f52601060205260405f2060ff600282015416612a3181614d06565b60018114159081612c73575b50610b0857815f52601d60205260ff60405f205416926003841015612c6457825f52601b60205260405f20548015612c55576001850160ff8111610ae557845f52601c60205260ff60405f2054911695600187145f14612b9e5750601e810290808204601e1481151715610ae557612abd6064612ac29304938492614e0c565b614ee2565b600484015410612b8f578015612b80577ffb350cef5f96619ae823583baae69fdcfdb6d0ff2bbcd8b2c33b8e4e9be8ca61926040926001600160a01b038116612b785750600e01546001600160a01b0316905b601954612b2e90829084906001600160a01b03166153bb565b845f52601b602052825f20612b44828254614e0c565b90555f858152601d602090815290849020805460ff19168817905583519687528601526001600160a01b031693a360018055005b905090612b15565b631f2a200560e01b5f5260045ffd5b63bcf01a7b60e01b5f5260045ffd5b60028703612bcc5750602881029080820460281481151715610ae557612abd6064612ac29304938492614e0c565b905f916001811015612c37575b60021115612c0d575b612ac29180821115612c0357612bfb612abd9183614e0c565b938492614e0c565b50612abd5f612bfb565b6028810281810460281482151715610ae557612ac2926064612c30920490614ee2565b9150612be2565b9150601e8102818104601e1482151715610ae5576064900491612bd9565b63886b5d7960e01b5f5260045ffd5b63749a53d160e11b5f5260045ffd5b60029150612c8081614d06565b141584612a3d565b506011548111612a00565b506009546001600160a01b03163314156129f3565b3461039f57602036600319011261039f57600435335f52600b60205260ff60405f2054161580612e25575b610b175780158015612e1a575b61146257612cec615381565b805f52601060205260405f206002810190612d2a82549160ff831690612d1182614d06565b612d1a82614d06565b600b600a8201549101549161571f565b15612e0b5760125415612dfc5760ff19166002179055601254612d4c90614e00565b6012557f8de6488143d44b7fa431ad228e2cb37f23f7ca68e94fb3f783dc97a427c8319e60206040612df58151612d838382614bc6565b60118152701a5b9d995cdd1b595b9d17d8db1bdcd959607a1b848201528251612dad606082614bc6565b602a81527f496e766573746d656e7420636c6f736564206166746572207969656c64206469858201526939ba3934b13aba34b7b760b11b848201528351916113f18684614bc6565b51428152a2005b635942272960e11b5f5260045ffd5b63194a12d360e21b5f5260045ffd5b506011548111612ce0565b506009546001600160a01b0316331415612cd3565b3461039f57602036600319011261039f57600435335f52600b60205260ff60405f2054161580612fe2575b610b175780158015612fd7575b61146257612e7e615381565b805f52601060205260405f2060048101908154906006810191825460038301549110159081612fcc575b5015610b08576002019081549060ff8216612ec281614d06565b611ad25784937fbedc4e5ac6876307c4b4b5761039aa2ebce89052490a34e15cc655d9142ba0dc93600160209460ff1916179055612f01601254614e25565b60125554905480821015612fc557505b835f52601b82528060405f2055835f52601c82528060405f2055604051908152a27f63845abb6c5a9787d94abca8b6ebc7bf82471da0740224f90497364dd4bcd78560206040612df58151612f668382614bc6565b6011815270696e766573746d656e745f61637469766560781b848201528251612f8f8482614bc6565b601d81527f496e766573746d656e74206163746976617465642062792061646d696e000000858201528351916113f18684614bc6565b9050612f11565b905042111585612ea8565b506011548111612e72565b506009546001600160a01b0316331415612e65565b3461039f575f36600319011261039f576040515f60035461301781614b21565b8084529060018116908115611c03575060011461303e57611bb483611ba081850382614bc6565b60035f9081525f5160206158215f395f51905f52939250905b80821061306f57509091508101602001611ba0611b90565b919260018160209254838588010152019101909291613057565b3461039f57602036600319011261039f576130a2614cad565b6009546001600160a01b03163303612735576001600160a01b03811690811561144457815f52600b60205260ff60405f205416613160575f828152600b60205260409020805460ff19166001179055600a5490600160401b8210156109c75761311682600161313a9401600a55600a614cf1565b9080546001600160a01b0360039390931b83811b199091169290931690921b179055565b7f44d6d25963f097ad14f29f06854a01f575648a1ef82f30e562ccd3889717e3395f80a2005b631c3681a560e11b5f5260045ffd5b3461039f575f36600319011261039f576020601554604051908152f35b614db3565b3461039f575f36600319011261039f576040515f6007546131b181614b21565b8084529060018116908115611c0357506001146131d857611bb483611ba081850382614bc6565b60075f9081525f5160206158615f395f51905f52939250905b80821061320957509091508101602001611ba0611b90565b9192600181602092548385880101520191019092916131f1565b3461039f57604036600319011261039f576004356001600160401b03811161039f57613253903690600401614d38565b6024356001600160401b03811161039f57613272903690600401614d38565b335f52600b60205260ff60405f2054161580613453575b610b1757613295615381565b8151156134445781516001600160401b0381116109c7576132bb81611e98600354614b21565b602092601f82116001146133e3576132dd929382915f926133d8575050614f9b565b6003555b80516001600160401b0381116109c7576132fc600754614b21565b601f8111613393575b50602091601f821160011461333657613326925f918361332b575050614f9b565b600755005b0151905083806106cc565b601f1982169260075f52805f20915f5b85811061337b57508360019510613363575b505050811b01600755005b01515f1960f88460031b161c19169055828080613358565b91926020600181928685015181550194019201613346565b818111156133055760075f526133d2905f5160206158615f395f51905f5290601f840160051c90602085106120cb57601f82910160051c039101614eef565b82613305565b0151905084806106cc565b601f1982169360035f52805f20915f5b86811061342c5750836001959610613414575b505050811b016003556132e1565b01515f1960f88460031b161c19169055838080613406565b919260206001819286850151815501940192016133f3565b63d937d5df60e01b5f5260045ffd5b506009546001600160a01b0316331415613289565b3461039f575f36600319011261039f57602060ff5f54166040519015158152f35b3461039f57602036600319011261039f576001600160a01b036134aa614cad565b165f52600c602052602060ff60405f2054166040519015158152f35b3461039f57602036600319011261039f576004355f52601660205260405f20805460018201549160028101546134fe60038301614be9565b9160018060a01b0360048201541692613549600583015491600760ff600686015416940154946040519889988952602089015260408801526101006060880152610100870190614c89565b93608086015260a0850152151560c084015260e08301520390f35b3461039f575f36600319011261039f576020600854604051908152f35b3461039f57602036600319011261039f5761359a614cad565b6009546001600160a01b03163303612735576001600160a01b0316801561144457805f52600c60205260ff60405f20541661360c57805f52600c60205260405f20600160ff198254161790557f523e827b00cfde26c023198872374e1daad3b202fe81de569305116b2fc4f3295f80a2005b636057e30560e11b5f5260045ffd5b3461039f575f36600319011261039f576040515f60045461363b81614b21565b8084529060018116908115611c03575060011461366257611bb483611ba081850382614bc6565b60045f9081525f5160206158a15f395f51905f52939250905b80821061369357509091508101602001611ba0611b90565b91926001816020925483858801015201910190929161367b565b3461039f576136bb36614d7e565b90335f52600c60205260ff60405f2054161580613743575b8061372e575b610b175782158015613723575b611462576136f261539b565b6136fa615381565b6005600a54106137145761370d92614fad565b5060018055005b631fefcd9f60e31b5f5260045ffd5b5060115483116136e6565b506009546001600160a01b03163314156136d9565b50335f52600b60205260ff60405f205416156136d3565b3461039f575f36600319011261039f576020601254604051908152f35b3461039f57604036600319011261039f57613790614cad565b335f52600b60205260ff60405f2054161580613904575b610b17576137b3615381565b6001600160a01b03811690811561144457815f52600d60205260ff600360405f200154166138f557600f5460085411156138e6576138876040516137f681614b59565b8381526001602080830182815260243560408086019182524260608701908152608087018681525f8b8152600d909652919094209551865493516001600160a81b03199094166001600160a01b03919091161792151560a01b60ff60a01b16929092178555519284019290925551600283015551600391909101805491151560ff1660ff1992909216919091179055565b600e5490600160401b8210156109c7576131168260016138ac9401600e55600e614cf1565b6138b7600f54614e25565b600f557fede8eed4383e9241982619b94dd83e488b274cced0fd07b8c0092a393defd52f6020604051428152a2005b63448897d760e11b5f5260045ffd5b6340803a5f60e11b5f5260045ffd5b506009546001600160a01b03163314156137a7565b3461039f575f36600319011261039f57602060405160288152f35b3461039f57602036600319011261039f5760043580158015613b78575b611462575f8181526013602090815260408083203384529091529020600281015415613b695760ff600360019201541603613b5a5761398e61539b565b613996615381565b805f52601060205260405f2090600160ff6002840154166139b681614d06565b03611189575f818152601360209081526040808320338452909152902060058101805460ff8116613b4b576002830154926004860154600a870154948115613b1a57818111613ae55785810290808204871490151715610ae55704958615613ad657600b0193613a27878654614ee2565b11613ac7578592600160069360ff19161790550155613a47838254614ee2565b9055805f526014602052600360405f2060028101613a66858254614ee2565b905501613a74838254614e0c565b9055601954613a8f90839033906001600160a01b03166153bb565b6040519182524260208301527fc64c05237373d420472e7259849c0a314d9c3424021920543562ceffa9b10f9460403393a360018055005b635c1ed68560e11b5f5260045ffd5b633dfa692b60e11b5f5260045ffd5b60405162461bcd60e51b815260206004820152600d60248201526c496e76616c6964207374616b6560981b6044820152606490fd5b60405162461bcd60e51b81526020600482015260096024820152684e6f207374616b657360b81b6044820152606490fd5b631bea808560e11b5f5260045ffd5b63e3cfa09d60e01b5f5260045ffd5b636567cc4d60e11b5f5260045ffd5b506011548111613951565b3461039f575f36600319011261039f576009546001600160a01b03163303612735575f5460ff811615613c0c5760ff19165f557f5db9ee0a495bf2e6ff9c91a7834c1ba4fdd244a5e8aa4e537bd38aeae4b073aa6020604051338152a17f3cf7f4812abee6b0b46f8d2cc840074832139c14b9f24b3f9261b62b0b0376256020604051428152a1005b638dfc202b60e01b5f5260045ffd5b3461039f57604036600319011261039f57600435613c37614cc3565b9080158015613c51575b61146257602091611b5091614e95565b506011548111613c41565b3461039f57613c6a36614af2565b335f52600c60205260ff60405f2054161580613ee0575b80613ecb575b610b175781158015613ec0575b61146257613ca0615381565b815f52601060205260405f2060ff60088201541690613cbe82614d06565b613cc782614d06565b600c810190613cd882548094615700565b15613eb157831592839184159485613ea7575b613e98576003019384549080613e8d575b15613e54576201518086029286840462015180141715610ae557613d2a92613d2391614ee2565b8455614e25565b81556040519263e939567960e01b845260048401525f8360248173__$ffd0c94c66d959deda02fa34153d397f8c$__5af49182156110f957613de2600560356020957f514af8ba7abbcaa858d00568e0788cd39416a39195eac9780f8730cd4fcfb103975f91613e3a575b506040519687917402232b0b23634b7329032bc3a32b73232b210313c9605d1b828401528051918291018484015e810164206461797360d81b838201520301601a19810186520184614bc6565b613e2a604093845190613df58683614bc6565b6011825270191958591b1a5b9957d95e1d195b991959607a1b6020830152855191613e21602084614bc6565b5f8352886153fb565b54905482519182526020820152a2005b613e4e91503d805f833e6110eb8183614bc6565b89613d95565b60405162461bcd60e51b815260206004820152601160248201527024b73b30b634b21032bc3a32b739b4b7b760791b6044820152606490fd5b50605a861115613cfc565b637a5ce64b60e11b5f5260045ffd5b50605a8611613ceb565b63a0ef36df60e01b5f5260045ffd5b506011548211613c94565b506009546001600160a01b0316331415613c87565b50335f52600b60205260ff60405f20541615613c81565b3461039f57602036600319011261039f57600435335f52600b60205260ff60405f2054161580614031575b610b175780158015614026575b61146257613f3b615381565b805f52601060205260405f206004810154600682015460038301549110908161401c575b5015610b0857600201805460ff8116613f7781614d06565b611ad25760039060ff19161790557f477401ab661b0c0f9131c8b3dc7d8bf57827b759310a27e8083266956dda72be60206040612df58151613fb98382614bc6565b6015815274696e766573746d656e745f696e636f6d706c65746560581b848201528251613fe68482614bc6565b601f81527f496e766573746d656e74206d61726b656420617320696e636f6d706c65746500858201528351916113f18684614bc6565b9050421183613f5f565b506011548111613f2f565b506009546001600160a01b0316331415613f22565b3461039f57602036600319011261039f576004358015801561413a575b6114625761406f61539b565b614077615381565b805f526010602052600360ff600260405f2001541661409581614d06565b0361412b575f818152601360209081526040808320338452909152902060020180549190821561411c575f90556140ce82601a54614e0c565b601a556019546140ea90839033906001600160a01b03166153bb565b6040519182527f459d5aef2c549903c1eeb1736f5728845d5ccf82537ddd5bf8035795eee8926360203393a360018055005b630c8b4ebb60e01b5f5260045ffd5b63425c70e560e01b5f5260045ffd5b506011548111614063565b3461039f57602036600319011261039f576001600160a01b03614166614cad565b165f52600b602052602060ff60405f2054166040519015158152f35b3461039f575f36600319011261039f576020601154604051908152f35b3461039f57602036600319011261039f576004355f6101e06040516141c381614b74565b828152606060208201528260408201528260608201528260808201528260a08201528260c08201528260e0820152826101008201528261012082015260606101408201528261016082015282610180820152826101a0820152826101c08201520152801580156144a2575b611462575f52601060205260405f2060405161424981614b74565b8154815261425960018301614be9565b9060208101918252600283015460ff811693604083019461427981614d06565b855261428f60ff606085019360081c1683614e19565b6003810154926080810193845260048201549360a08201948552600583015460c08301908152600684015460e084019081526007850154610100850190815260ff600887015416916101208601926142e681614d06565b8352600987019384546142f881614de9565b956143066040519788614bc6565b81875260208701905f5260205f205f915b83831061448557505050506101408701948552600a8801549961016088019a8b52600b890154966101808901978852600c8a0154986101a08101998a52600d8b01549a6101c082019b8c52600160a01b6001900390600e0154169b6101e082019c8d526040519e8f92602084525160208401525160408301610200905261022083016143a291614c89565b9f516143ad81614d06565b606083015251906080016143c091614d10565b5160a08d01525160c08c01525160e08b0152516101008a015251610120890152516143ea81614d06565b6101408801525194601f1987890301610160880152855180895260208901908060051b8a0160200197602001915f905b82821061445957505091516101808901525050516101a0860152516101c0850152516101e0840152516001600160a01b03166102008301528190039150f35b909192986020806144776001938f601f199082030186528d51614c89565b9b019201920190929161441a565b60016020819261449485614be9565b815201920192019190614317565b50601154811161422e565b3461039f57602036600319011261039f576144c6614cad565b6009546001600160a01b03163303612735576001600160a01b03165f818152600b602052604090205460ff16156145e3575f818152600b60205260408120805460ff191690555b600a5490818110156145dc578261452382614cd9565b905460039190911b1c6001600160a01b03161461454457600191500161450d565b5f198201918211610ae55761311661455e61457693614cd9565b905460039190911b1c6001600160a01b031691614cd9565b600a5480156145c8575f190161458b81614cd9565b81549060018060a01b039060031b1b19169055600a555b7fa3b62bc36326052d97ea62d63c3d60308ed4c3ea8ac079dd8499f1e9c4f80c0f5f80a2005b634e487b7160e01b5f52603160045260245ffd5b50506145a2565b6355098f2760e01b5f5260045ffd5b3461039f57602036600319011261039f57600435600a5481101561039f5761461b602091614cd9565b905460405160039290921b1c6001600160a01b03168152f35b3461039f575f36600319011261039f576020600f54604051908152f35b3461039f57602036600319011261039f576004355f52601b602052602060405f2054604051908152f35b3461039f57602036600319011261039f57600435801580156147f6575b611462575f52601860205260405f208054906146b382614de9565b916146c16040519384614bc6565b8083526020830180925f5260205f205f915b83831061478f57848660405191829160208301906020845251809152604083019060408160051b85010192915f905b82821061471157505050500390f35b919360019193955060208091603f19898203018552875190608061477061475e614744855160a0865260a0860190614c89565b868601518786015260408601518582036040870152614c89565b60608501518482036060860152614c89565b9281878060a01b03910151169101529601920192018594939192614702565b600560206001926040516147a281614b59565b6147ab86614be9565b815284860154838201526147c160028701614be9565b60408201526147d260038701614be9565b6060820152848060a01b0360048701541660808201528152019201920191906146d3565b506011548111614698565b3461039f57602036600319011261039f576004355f52601c602052602060405f2054604051908152f35b3461039f57602036600319011261039f57614844614cad565b335f52600b60205260ff60405f20541615806148da575b610b1757614867615381565b6001600160a01b03165f818152600d602052604090206003015460ff1615610d5357805f52600d602052600360405f200160ff1981541690556148ab600f54614e00565b600f557f3ac963493df564de734d98633f1145d21512e282ba4c02d3c1011119bf7f28626020604051428152a2005b506009546001600160a01b031633141561485b565b3461039f57602036600319011261039f576001600160a01b03614910614cad565b165f52600d60205260a060405f2080549060018101549060ff60036002830154920154169160ff60405194600180881b0381168652861c16151560208501526040840152606083015215156080820152f35b3461039f575f36600319011261039f576040515f60025461498281614b21565b8084529060018116908115611c0357506001146149a957611bb483611ba081850382614bc6565b60025f9081525f5160206158015f395f51905f52939250905b8082106149da57509091508101602001611ba0611b90565b9192600181602092548385880101520191019092916149c2565b3461039f575f36600319011261039f576019546040516001600160a01b039091168152602090f35b3461039f575f36600319011261039f576009546040516001600160a01b039091168152602090f35b3461039f57614a5236614af2565b905f52601860205260405f20805482101561039f57614ac791614a7491614b08565b50614a7e81614be9565b90614ae8600182015491614ada614a9760028301614be9565b93614aa460038401614be9565b92600460018060a01b03910154169460405197889760a0895260a0890190614c89565b9160208801528682036040880152614c89565b908482036060860152614c89565b9060808301520390f35b604090600319011261039f576004359060243590565b805482101561120b575f52600560205f20910201905f90565b90600182811c92168015614b4f575b6020831014614b3b57565b634e487b7160e01b5f52602260045260245ffd5b91607f1691614b30565b60a081019081106001600160401b038211176109c757604052565b61020081019081106001600160401b038211176109c757604052565b60c081019081106001600160401b038211176109c757604052565b60e081019081106001600160401b038211176109c757604052565b601f909101601f19168101906001600160401b038211908210176109c757604052565b9060405191825f825492614bfc84614b21565b8084529360018116908115614c675750600114614c23575b50614c2192500383614bc6565b565b90505f9291925260205f20905f915b818310614c4b575050906020614c21928201015f614c14565b6020919350806001915483858901015201910190918492614c32565b905060209250614c2194915060ff191682840152151560051b8201015f614c14565b805180835260209291819084018484015e5f828201840152601f01601f1916010190565b600435906001600160a01b038216820361039f57565b602435906001600160a01b038216820361039f57565b600a5481101561120b57600a5f5260205f2001905f90565b805482101561120b575f5260205f2001905f90565b60041115610a5957565b906007821015610a595752565b6001600160401b0381116109c757601f01601f191660200190565b81601f8201121561039f57803590614d4f82614d1d565b92614d5d6040519485614bc6565b8284526020838301011161039f57815f926020809301838601378301015290565b606060031982011261039f576004359160243591604435906001600160401b03821161039f57614db091600401614d38565b90565b3461039f575f36600319011261039f576020604051601e8152f35b3461039f575f36600319011261039f57602060405160038152f35b6001600160401b0381116109c75760051b60200190565b8015610ae5575f190190565b91908203918211610ae557565b6007821015610a595752565b5f198114610ae55760010190565b60208183031261039f578051906001600160401b03821161039f570181601f8201121561039f57805190614e6682614d1d565b92614e746040519485614bc6565b8284526020838301011161039f57815f9260208093018386015e8301015290565b805f526010602052600360ff600260405f20015416614eb381614d06565b03614edc575f52601360205260405f209060018060a01b03165f52602052600260405f20015490565b50505f90565b91908201809211610ae557565b5f5b828110614efd57505050565b5f82820155600101614ef1565b601f8111614f16575050565b818111614f21575050565b60035f52614c21915f5160206158215f395f51905f5291601f820160051c916020116120cb57601f82910160051c039101614eef565b91601f8211614f6557505050565b808211614f7157505050565b614c21925f5260205f20916020601f830160051c92106120cb57601f82910160051c039101614eef565b8160011b915f199060031b1c19161790565b9091335f52600c60205260ff60405f20541615806151e4575b806151cf575b610b1757811580156151c4575b61146257614fe5615381565b8215612b80576005600a541061371457615000601554614e25565b601581905560405190939061010081016001600160401b038111828210176109c7576040528481526020810184815260408201838152606083019485526080830133815260a08401905f825260c08501925f845260e08601944286528a5f52601660205260405f209651875551600187015551600286015560038501965196875160018060401b0381116109c7578a986150a48261509e8554614b21565b85614f57565b602090601f83116001146151425793615128936150e28460609b9995600799955f5160206158415f395f51905f529e9c995f92610953575050614f9b565b90555b516004870180546001600160a01b039092166001600160a01b03199092169190911790555160058601555160068501805460ff191691151560ff16919091179055565b51910155604051908152336020820152426040820152a390565b90601f19831691845f52815f20925f5b8181106151a9575084600798945f5160206158415f395f51905f529d9b9894615128989460609e9c9860019510615191575b505050811b0190556150e5565b01515f1960f88460031b161c191690555f8080615184565b8284015185558f9d5060019094019360209384019301615152565b506011548211614fd9565b506009546001600160a01b0316331415614fcc565b50335f52600b60205260ff60405f20541615614fc6565b6001600160a01b0391821681529116602082015260400190565b9190918281146152e2576152298354614b21565b6001600160401b0381116109c75761524b816152458454614b21565b84614f57565b5f93601f821160011461527c5761526d92939482915f92615271575050614f9b565b9055565b015490505f806106cc565b601f198216905f5260205f2094835f5260205f20915f5b8181106152ca575095836001959697106152b2575b505050811b019055565b01545f1960f88460031b161c191690555f80806152a8565b9192600180602092868b015481550194019201615293565b509050565b939291908452606060208501525f81549161530183614b21565b928360608801526001811690815f146153605750600114615327575b5060409150930152565b90505f5260205f205f905b82821061534957506040915084016080015f61531d565b600181602092546080858a01015201910190615332565b905060809250604093915060ff191682870152151560051b8501015f61531d565b60ff5f541661538c57565b63d93c066560e01b5f5260045ffd5b6002600154146153ac576002600155565b633ee5aeb560e01b5f5260045ffd5b60405163a9059cbb60e01b60208201526001600160a01b039092166024830152604480830193909352918152614c21916153f6606483614bc6565b6157a8565b92919091835f52601860205260405f206040519161541883614b59565b8483526020830142815260408401908582526060850192835260808501933385528054600160401b8110156109c75761545691600182018155614b08565b9590956156ed57518051906001600160401b0382116109c7576154838261547d8954614b21565b89614f57565b602090601f831160011461568a576154a492915f9183610953575050614f9b565b85555b51600185015551805160028501916001600160401b0382116109c7576154d18261509e8554614b21565b602090601f8311600114615627576154f292915f9183610953575050614f9b565b90555b51805160038401916001600160401b0382116109c7576155198261509e8554614b21565b602090601f83116001146155a957936155909693615556845f5160206158e15f395f51905f529a989560049561559e995f92610953575050614f9b565b90555b51910180546001600160a01b0319166001600160a01b03929092169190911790556040516060808252909485949091850190614c89565b908382036020850152614c89565b4260408301520390a2565b90601f19831691845f52815f20925f5b81811061560f57508460049461559e98946155909b98945f5160206158e15f395f51905f529d9b98600195106155f7575b505050811b019055615559565b01515f1960f88460031b161c191690555f80806155ea565b929360206001819287860151815501950193016155b9565b90601f19831691845f52815f20925f5b818110615672575090846001959493921061565a575b505050811b0190556154f5565b01515f1960f88460031b161c191690555f808061564d565b92936020600181928786015181550195019301615637565b90601f19831691885f52815f20925f5b8181106156d557509084600195949392106156bd575b505050811b0185556154a7565b01515f1960f88460031b161c191690555f80806156b0565b9293602060018192878601518155019501930161569a565b634e487b7160e01b5f525f60045260245ffd5b60ff60019161570e81614d06565b161161571a5760031190565b505f90565b60019061572b81614d06565b03614edc571490565b6040516323b872dd60e01b60208201526001600160a01b039283166024820152929091166044830152606480830193909352918152614c21916153f6608483614bc6565b15614edc5760641061571a57801590811561579c575b5061579857600190565b5f90565b61016d9150115f61578e565b905f602091828151910182855af1156110f9575f513d6157f757506001600160a01b0381163b155b6157d75750565b635274afe760e01b5f9081526001600160a01b0391909116600452602490fd5b600114156157d056fe405787fa12a823e0f2b7631cc41b3ba8828b3321ca811111fa75cd3aa3bb5acec2575a0e9e593c00f959f8c92f12db2869c3395a3b0502d05e2516446f71f85baa345e06f0f866c55fb2e9ad3a43b90c46c8a2d18568df9f7ea88a7bb1639f7aa66cc928b5edb82af9bd49922954155ab7b0942694bea4ce44661d9a8736c688f652222313e28459528d920b65115c16c04f3efc82aaedc97be59f3f377c0d3f8a35acfbc15ff81a39ae7d344fd709f28e8600b4aa8c65c6b64bfe7fe36bd19bf0c57e16840df040f15088dc2f81fe391c3923bec73e23a9662efc9c229c6a005e588d172174d4a3321e55c326af392fe0e96206d6c0c2cd1032d02e3a7b6921a2646970667358221220700697287aceb9427baea90b30cc0432bf518da914004bd8078f0b2c87dfc68f64736f6c63430008210033f0c57e16840df040f15088dc2f81fe391c3923bec73e23a9662efc9c229c6a00","linkReferences":{"src/libraries/StringUtils.sol":{"StringUtils":[{"start":4206,"length":20},{"start":5072,"length":20},{"start":6446,"length":20},{"start":15865,"length":20}]}}},"methodIdentifiers":{"GRACE_PERIOD_FOR_UNCLAIMED_YIELD()":"99c92a55","MAX_EXTENSIONS()":"c07780f6","PHASE1_PERCENT()":"6833bb77","PHASE2_PERCENT()":"48dccf71","PHASE3_PERCENT()":"6e8c4c92","REQUIRED_ADMIN_COUNT()":"ca749c99","REQUIRED_YIELD_APPROVALS()":"ca90b905","activateInvestment(uint256)":"7485997f","activeInvestmentCount()":"4c35833d","addAdmin(address)":"70480275","addFinanceManager(address)":"53dac930","addMember(address,bytes32)":"49df7208","admins(uint256)":"14bfd6d0","approveYieldDeposit(uint256)":"d9d86610","canActivateInvestment(uint256)":"8a7174d7","claimYield(uint256)":"40bd2e23","closeInvestment(uint256)":"760121c9","coordinates()":"a4b889b7","createInvestment(string,uint8,uint256,uint256,uint8,uint256,string[])":"e3ad2834","creator()":"02d05d3f","depositYield(uint256,uint256,string)":"50af8e34","description()":"7284e416","escrowTotal(uint256)":"0ce52701","escrowedAmount(uint256)":"0f55e9f2","executeYieldDeposit(uint256)":"d1b22b9d","exitDAO()":"c11baa5e","extendDeadline(uint256,uint256)":"2d1fdef6","getAllMembers()":"7c0f6b35","getInvestment(uint256)":"22ae634f","getInvestmentTimeline(uint256)":"0e8bd782","getVote(uint256,address)":"bc3f931f","getVoteCounts(uint256)":"8a241f4c","getWithdrawableAmount(uint256,address)":"359cd45e","getYieldDistribution(uint256)":"7967c623","initialize(address,string,string,string,string,string,uint256,address)":"9f972814","investmentCount()":"246b0e5c","investmentTimeline(uint256,uint256)":"023dc321","investments(uint256)":"fd345c8a","isAdmin(address)":"24d7806c","isFinanceManager(address)":"59014773","isVerifiedMember(address)":"cb261a03","location()":"516f279e","logoURI()":"6bb38b28","markInvestmentIncomplete(uint256)":"2a800659","maxMembership()":"53f0ab14","memberAddresses(uint256)":"cc4e6299","memberCount()":"11aee380","members(address)":"08ae4b0c","name()":"06fdde03","pause()":"8456cb59","paused()":"5c975abb","postalCode()":"a8dfd7fe","proposeYieldDeposit(uint256,uint256,string)":"ab877879","releaseNextPhase(uint256,address)":"78587a0a","releasePhaseCompleted(uint256)":"af38c765","removeAdmin(address)":"1785f53c","removeFinanceManager(address)":"87dbdfcb","removeMember(address)":"0b1ca49a","sweepUnclaimedYield(uint256,address)":"cc2cbf72","totalValueLocked()":"ec18154e","unpause()":"3f4ba83a","updateDAOInfo(string,string)":"6028a4ef","usdcAddress()":"02d45457","verifyMemberKYC(address)":"d6cf2096","vote(uint256,uint256,uint8)":"bbb2eab9","votes(uint256,address)":"d23254b4","withdrawStake(uint256)":"25d5971f","yieldDistributions(uint256)":"ff78c38a","yieldProposalApprovals(uint256,address)":"8172dcba","yieldProposalCount()":"6f6a169d","yieldProposals(uint256)":"544c97bf"},"id":38}