{"abi":[{"type":"constructor","inputs":[{"name":"_owner","type":"address","internalType":"address"},{"name":"_implementation","type":"address","internalType":"address"}],"stateMutability":"nonpayable"},{"type":"function","name":"allDAOs","inputs":[{"name":"","type":"uint256","internalType":"uint256"}],"outputs":[{"name":"","type":"address","internalType":"address"}],"stateMutability":"view"},{"type":"function","name":"createDAO","inputs":[{"name":"name","type":"string","internalType":"string"},{"name":"description","type":"string","internalType":"string"},{"name":"location","type":"string","internalType":"string"},{"name":"coordinates","type":"string","internalType":"string"},{"name":"postalCode","type":"string","internalType":"string"},{"name":"maxMembership","type":"uint256","internalType":"uint256"},{"name":"usdcAddress","type":"address","internalType":"address"}],"outputs":[{"name":"daoAddress","type":"address","internalType":"address"}],"stateMutability":"nonpayable"},{"type":"function","name":"daoInfo","inputs":[{"name":"","type":"address","internalType":"address"}],"outputs":[{"name":"name","type":"string","internalType":"string"},{"name":"location","type":"string","internalType":"string"},{"name":"creator","type":"address","internalType":"address"},{"name":"createdAt","type":"uint256","internalType":"uint256"},{"name":"isActive","type":"bool","internalType":"bool"}],"stateMutability":"view"},{"type":"function","name":"deactivateDAO","inputs":[{"name":"daoAddress","type":"address","internalType":"address"}],"outputs":[],"stateMutability":"nonpayable"},{"type":"function","name":"getActiveDAOs","inputs":[],"outputs":[{"name":"","type":"address[]","internalType":"address[]"}],"stateMutability":"view"},{"type":"function","name":"getAllDAOs","inputs":[],"outputs":[{"name":"","type":"address[]","internalType":"address[]"}],"stateMutability":"view"},{"type":"function","name":"getDAOMetadata","inputs":[{"name":"daoAddress","type":"address","internalType":"address"}],"outputs":[{"name":"","type":"tuple","internalType":"struct LocalDAOFactory.DAOMetadata","components":[{"name":"name","type":"string","internalType":"string"},{"name":"location","type":"string","internalType":"string"},{"name":"creator","type":"address","internalType":"address"},{"name":"createdAt","type":"uint256","internalType":"uint256"},{"name":"isActive","type":"bool","internalType":"bool"}]}],"stateMutability":"view"},{"type":"function","name":"implementation","inputs":[],"outputs":[{"name":"","type":"address","internalType":"address"}],"stateMutability":"view"},{"type":"function","name":"isDAO","inputs":[{"name":"","type":"address","internalType":"address"}],"outputs":[{"name":"","type":"bool","internalType":"bool"}],"stateMutability":"view"},{"type":"function","name":"isValidDAO","inputs":[{"name":"daoAddress","type":"address","internalType":"address"}],"outputs":[{"name":"","type":"bool","internalType":"bool"}],"stateMutability":"view"},{"type":"function","name":"owner","inputs":[],"outputs":[{"name":"","type":"address","internalType":"address"}],"stateMutability":"view"},{"type":"function","name":"renounceOwnership","inputs":[],"outputs":[],"stateMutability":"nonpayable"},{"type":"function","name":"transferOwnership","inputs":[{"name":"newOwner","type":"address","internalType":"address"}],"outputs":[],"stateMutability":"nonpayable"},{"type":"event","name":"DAOCreated","inputs":[{"name":"daoAddress","type":"address","indexed":true,"internalType":"address"},{"name":"name","type":"string","indexed":false,"internalType":"string"},{"name":"location","type":"string","indexed":false,"internalType":"string"},{"name":"creator","type":"address","indexed":true,"internalType":"address"},{"name":"timestamp","type":"uint256","indexed":false,"internalType":"uint256"}],"anonymous":false},{"type":"event","name":"DAODeactivated","inputs":[{"name":"daoAddress","type":"address","indexed":true,"internalType":"address"},{"name":"timestamp","type":"uint256","indexed":false,"internalType":"uint256"}],"anonymous":false},{"type":"event","name":"OwnershipTransferred","inputs":[{"name":"previousOwner","type":"address","indexed":true,"internalType":"address"},{"name":"newOwner","type":"address","indexed":true,"internalType":"address"}],"anonymous":false},{"type":"error","name":"FailedDeployment","inputs":[]},{"type":"error","name":"InsufficientBalance","inputs":[{"name":"balance","type":"uint256","internalType":"uint256"},{"name":"needed","type":"uint256","internalType":"uint256"}]},{"type":"error","name":"OwnableInvalidOwner","inputs":[{"name":"owner","type":"address","internalType":"address"}]},{"type":"error","name":"OwnableUnauthorizedAccount","inputs":[{"name":"account","type":"address","internalType":"address"}]}],"bytecode":{"object":"0x60a03461013057601f61122538819003918201601f19168301916001600160401b0383118484101761013457808492604094855283398101031261013057610052602061004b83610148565b9201610148565b906001600160a01b0316801561011d575f80546001600160a01b031981168317825560405192916001600160a01b03909116907f8be0079c531659141344cd1fd0a4f28419497f9722a3daafe3b4186f6b6457e09080a36001600160a01b038216156100db57506080526040516110c8908161015d82396080518181816102170152610ad60152f35b62461bcd60e51b815260206004820152601660248201527f496e76616c696420696d706c656d656e746174696f6e000000000000000000006044820152606490fd5b631e4fbdf760e01b5f525f60045260245ffd5b5f80fd5b634e487b7160e01b5f52604160045260245ffd5b51906001600160a01b03821682036101305756fe6080806040526004361015610012575f80fd5b5f905f3560e01c90816303caaba214610d43575080633cb2c68a14610cba57806344d4bf5914610bdf5780634765b01c14610b4257806350435fa414610b055780635c60da1b14610ac15780636c74f615146109a0578063715018a61461095c5780638da5cb5b146109355780639989b914146107f3578063b4136bd8146107b1578063f0dadbce146101225763f2fde38b146100ad575f80fd5b3461011f57602036600319011261011f576100c6610d9e565b6100ce61102c565b6001600160a01b0316801561010b5781546001600160a01b03198116821783556001600160a01b03165f5160206110735f395f51905f528380a380f35b631e4fbdf760e01b82526004829052602482fd5b80fd5b50346106b65760e03660031901126106b6576004356001600160401b0381116106b657610153903690600401610f5c565b6024356001600160401b0381116106b657610172903690600401610f5c565b906044356001600160401b0381116106b657610192903690600401610f5c565b6064356001600160401b0381116106b6576101b1903690600401610f5c565b926084356001600160401b0381116106b6576101d1903690600401610f5c565b60a4359460c4356001600160a01b03811692908390036106b65785511561077c578451156107435786156107055782156106c9576e5af43d82803e903d91602b57fd5bf37f0000000000000000000000000000000000000000000000000000000000000000763d602d80600a3d3981f3363d3d373d3d3d363d7300000062ffffff8260881c16175f5260781b1760205260018060a01b03603760095ff0169687156106ba57873b156106b6575f9361030488936102f26102bc966102e06102ce6040519b8c9a8b9a6327e5ca0560e21b8c523360048d015261010060248d01526101048c0190610f20565b8a81036003190160448c015290610f20565b8881036003190160648a01528c610f20565b87810360031901608489015290610f20565b8581036003190160a487015290610f20565b9160c484015260e4830152038183885af180156106ab57610696575b50600154600160401b811015610682578060016103409201600155610f44565b81546001600160a01b0360039290921b91821b19169085901b17905582845260026020526040808520805460ff191660011790555161037e81610e2e565b8281526020810190828252604081013381526060820190428252608083019360018552878952600360205260408920935180519060018060401b0382116105b15781906103cb8754610df6565b601f8111610632575b50602090601f83116001146105d0578c926105c5575b50508160011b915f199060031b1c19161784555b51805160018501916001600160401b0382116105b15761041e8354610df6565b601f811161056c575b5060209a8a98979695949392918c916001601f8511146104ef579280600496935f5160206110535f395f51905f529b9996936104cf9b9996926104e4575b50508160011b915f199060031b1c19161790555b600283019060018060a01b0390511660018060a01b0319825416179055516003820155019051151560ff801983541691161790556104c260405195606087526060870190610f20565b9085820388870152610f20565b924260408201528033940390a3604051908152f35b015190505f80610465565b9190601f198416858452828420935b818110610552575093600496935f5160206110535f395f51905f529b999693600193836104cf9d9b981061053a575b505050811b019055610479565b01515f1960f88460031b161c191690555f808061052d565b8383015185558e9c50600190940193928f01928f016104fe565b838c5260208c20601f840160051c810191602085106105a7575b601f0160051c01905b81811061059c5750610427565b8c815560010161058f565b9091508190610586565b634e487b7160e01b8b52604160045260248bfd5b015190505f806103ea565b878d52818d209250601f1984168d5b81811061061a5750908460019594939210610602575b505050811b0184556103fe565b01515f1960f88460031b161c191690555f80806105f5565b929360206001819287860151815501950193016105df565b909150868c5260208c20601f840160051c81019160208510610678575b90601f859493920160051c01905b81811061066a57506103d4565b8d815584935060010161065d565b909150819061064f565b634e487b7160e01b85526041600452602485fd5b6106a39194505f90610e5d565b5f925f610320565b6040513d5f823e3d90fd5b5f80fd5b63b06ebf3d60e01b5f5260045ffd5b60405162461bcd60e51b8152602060048201526014602482015273496e76616c69642055534443206164647265737360601b6044820152606490fd5b60405162461bcd60e51b81526020600482015260166024820152750496e76616c6964206d6178206d656d626572736869760541b6044820152606490fd5b60405162461bcd60e51b8152602060048201526011602482015270131bd8d85d1a5bdb881c995c5d5a5c9959607a1b6044820152606490fd5b60405162461bcd60e51b815260206004820152600d60248201526c13985b59481c995c5d5a5c9959609a1b6044820152606490fd5b346106b65760203660031901126106b6576004356001548110156106b6576107da602091610f44565b905460405160039290921b1c6001600160a01b03168152f35b346106b6575f3660031901126106b6576001545f805b8281106108ea575061081a81611015565b906108286040519283610e5d565b808252610837601f1991611015565b013660208301375f915f5b81811061085b57604051806108578582610db4565b0390f35b61086481610f44565b60018060a01b0391549060031b1c165f52600360205260ff600460405f20015416610892575b600101610842565b9261089c84610f44565b9054845160039290921b1c6001600160a01b0316908210156108d657816108ce91602060019460051b87010152610ff3565b93905061088a565b634e487b7160e01b5f52603260045260245ffd5b6108f381610f44565b60018060a01b0391549060031b1c165f52600360205260ff600460405f20015416610921575b600101610809565b9061092d600191610ff3565b919050610919565b346106b6575f3660031901126106b6575f546040516001600160a01b039091168152602090f35b346106b6575f3660031901126106b65761097461102c565b5f80546001600160a01b0319811682556001600160a01b03165f5160206110735f395f51905f528280a3005b346106b65760203660031901126106b6576109b9610d9e565b5f60806040516109c881610e2e565b6060815260606020820152826040820152826060820152015260018060a01b0316805f526002602052610a0160ff60405f205416610fb1565b5f526003602052610a8c60405f2060405190610a1c82610e2e565b610a2581610e80565b8252610a3360018201610e80565b6020830190815260018060a01b036002830154169160408401928352610a9f60ff60046003840154936060880194855201541692608086019315158452604051968796602088525160a0602089015260c0880190610f20565b9051868203601f19016040880152610f20565b92516001600160a01b0316606085015251608084015251151560a08301520390f35b346106b6575f3660031901126106b6576040517f00000000000000000000000000000000000000000000000000000000000000006001600160a01b03168152602090f35b346106b65760203660031901126106b6576001600160a01b03610b26610d9e565b165f526002602052602060ff60405f2054166040519015158152f35b346106b65760203660031901126106b6576001600160a01b03610b63610d9e565b165f526003602052610bbb60405f20610b7b81610e80565b90610b8860018201610e80565b60018060a01b0360028301541691610bc960ff60046003840154930154169260405196879660a0885260a0880190610f20565b908682036020880152610f20565b9260408501526060840152151560808301520390f35b346106b65760203660031901126106b657610bf8610d9e565b610c0061102c565b6001600160a01b03165f81815260026020526040902054610c239060ff16610fb1565b805f52600360205260ff600460405f2001541615610c7e57805f526003602052600460405f200160ff1981541690557fa19e260efe83eebe9eb3750e285d53ce38cbe86d1a91860c0bc07298715a63dd6020604051428152a2005b60405162461bcd60e51b815260206004820152601460248201527344414f20616c726561647920696e61637469766560601b6044820152606490fd5b346106b6575f3660031901126106b657604051600180548083525f91825260208301917fb10e2d527612073b26eecdfd717e6a320cf44b4afac2b0732d9fcbe2b7fa0cf691905b818110610d245761085785610d1881870382610e5d565b60405191829182610db4565b82546001600160a01b0316845260209093019260019283019201610d01565b346106b65760203660031901126106b6576020906001600160a01b03610d67610d9e565b16805f526002835260ff60405f2054169081610d85575b5015158152f35b90505f526003825260ff600460405f2001541683610d7e565b600435906001600160a01b03821682036106b657565b60206040818301928281528451809452019201905f5b818110610dd75750505090565b82516001600160a01b0316845260209384019390920191600101610dca565b90600182811c92168015610e24575b6020831014610e1057565b634e487b7160e01b5f52602260045260245ffd5b91607f1691610e05565b60a081019081106001600160401b03821117610e4957604052565b634e487b7160e01b5f52604160045260245ffd5b601f909101601f19168101906001600160401b03821190821017610e4957604052565b9060405191825f825492610e9384610df6565b8084529360018116908115610efe5750600114610eba575b50610eb892500383610e5d565b565b90505f9291925260205f20905f915b818310610ee2575050906020610eb8928201015f610eab565b6020919350806001915483858901015201910190918492610ec9565b905060209250610eb894915060ff191682840152151560051b8201015f610eab565b805180835260209291819084018484015e5f828201840152601f01601f1916010190565b6001548110156108d65760015f5260205f2001905f90565b81601f820112156106b6578035906001600160401b038211610e495760405192610f90601f8401601f191660200185610e5d565b828452602083830101116106b657815f926020809301838601378301015290565b15610fb857565b60405162461bcd60e51b8152602060048201526013602482015272496e76616c69642044414f206164647265737360681b6044820152606490fd5b5f1981146110015760010190565b634e487b7160e01b5f52601160045260245ffd5b6001600160401b038111610e495760051b60200190565b5f546001600160a01b0316330361103f57565b63118cdaa760e01b5f523360045260245ffdfe9ff434f93187d321b2fc39a456d6666058f471a462fa6215ef440d1ef51f092a8be0079c531659141344cd1fd0a4f28419497f9722a3daafe3b4186f6b6457e0a264697066735822122028390266fd39724c286e98af0ab05c304212a34832c245ae1b439e0ae796187264736f6c634300081e0033","linkReferences":{}},"methodIdentifiers":{"allDAOs(uint256)":"b4136bd8","createDAO(string,string,string,string,string,uint256,address)":"f0dadbce","daoInfo(address)":"4765b01c","deactivateDAO(address)":"44d4bf59","getActiveDAOs()":"9989b914","getAllDAOs()":"3cb2c68a","getDAOMetadata(address)":"6c74f615","implementation()":"5c60da1b","isDAO(address)":"50435fa4","isValidDAO(address)":"03caaba2","owner()":"8da5cb5b","renounceOwnership()":"715018a6","transferOwnership(address)":"f2fde38b"},"id":37}